:020000040800F2
:10000000000002200D2B00085D2B00085D2B00086E
:100010005D2B00085D2B00085D2B00080000000030
:100020000000000000000000000000006D2A000831
:100030005D2B0008000000006F2A0008712A0008EC
:100040005D2B00085D2B00085D2B00085D2B000870
:100050005D2B00085D2B00085D2B00085D2B000860
:100060005D2B00085D2B00085D2B00085D2B000850
:100070005D2B00085D2B00085D2B00085D2B000840
:100080005D2B00085D2B0008752A00085D2B000819
:100090005D2B00085D2B00085D2B00085D2B000820
:1000A0005D2B00085D2B00085D2B00085D2B000810
:1000B0005D2B00085D2B00085D2B00085D2B000800
:1000C0005D2B00085D2B00085D2B00085D2B0008F0
:1000D0005D2B00085D2B00085D2B00085D2B0008E0
:1000E0005D2B00085D2B00085D2B00085D2B0008D0
:1000F0005D2B00085D2B00085D2B00085D2B0008C0
:100100005D2B00085D2B00085D2B0008812A00088C
:100110005D2B00085D2B00085D2B00085D2B00089F
:100120005D2B00085D2B00085D2B00085D2B00088F
:100130005D2B00085D2B00085D2B00085D2B00087F
:100140005D2B00085D2B00085D2B00085D2B00086F
:100150005D2B00085D2B00085D2B00085D2B00085F
:100160005D2B00085D2B00085D2B00085D2B00084F
:100170005D2B00085D2B00085D2B000800000000CF
:080180005D2B00085D2B000857
:1001880010B5054C237833B9044B13B10448AFF3C9
:1001980000800123237010BD6000002000000000D3
:1001A800502D000808B5034B1BB103490348AFF3B2
:1001B800008008BD0000000064000020502D0008E9
:1001C80053B94AB9002908BF00281CBF4FF0FF31B6
:1001D8004FF0FF3000F070B9ADF1080C6DE904CEB6
:1001E80000F006F8DDF804E0DDE9022304B070470A
:1001F8002DE9F047089E0D4604460F46002B4AD1CC
:100208008A42944665D9B2FA82F343B102FA03FCF2
:10021800C3F120029F4020FA02F217439C404FEAA4
:100228001C4E1FFA8CF5B7FBFEF1220C0EFB117762
:1002380042EA074201FB05F090420AD91CEB020290
:1002480001F1FF3780F01C81904240F21981023998
:100258006244121AA4B2B2FBFEF00EFB102244EA6A
:10026800024400FB05F5A5420AD91CEB040400F181
:10027800FF3280F00781A54240F2048164440238CD
:1002880040EA0140641B00211EB1DC400023C6E99E
:100298000043BDE8F0878B4208D9002E00F0ED80BE
:1002A8000021C6E900050846BDE8F087B3FA83F1E6
:1002B800002949D1AB4202D3824200F2F880841A65
:1002C80065EB030201201746002EE2D0C6E900477D
:1002D800DFE702B9FFDEB2FA82F3002B40F090802C
:1002E8008A1A4FEA1C471FFA8CFE0121B2FBF7F568
:1002F80007FB1520220C42EA00420EFB05F0904253
:1003080008D91CEB020205F1FF3802D2904200F234
:10031800CB804546121AA4B2B2FBF7F007FB1022B5
:1003280044EA02440EFB00FEA64508D91CEB04046F
:1003380000F1FF3202D2A64500F2BB801046A4EBC2
:100348000E0440EA05409FE7C1F120078B4022FADE
:1003580007FC4CEA030C05FA01F420FA07F3FD4008
:100368004FEA1C492343B5FBF9F81FFA8CFE09FB39
:1003780018551C0C44EA054408FB0EF5A54202FA80
:1003880001F200FA01F00BD91CEB040408F1FF3A62
:1003980080F08880A54240F28580A8F10208644474
:1003A800641B9DB2B4FBF9F309FB134445EA04440A
:1003B80003FB0EFEA64508D91CEB040403F1FF3528
:1003C8006CD2A6456AD9023B644443EA0843A3FBBE
:1003D8000295A4EB0E04AC42C846AE4656D353D0A1
:1003E80056B1B0EB080264EB0E0404FA07F7CA40F2
:1003F800CC401743C6E9007418460021BDE8F087D1
:10040800C3F1200102FA03FC20FA01F225FA01F1F6
:100418009D402A434FEA1C471FFA8CFEB1FBF7F0B8
:1004280007FB1015110C41EA054100FB0EF58D4242
:1004380004FA03F408D91CEB010100F1FF382FD2AC
:100448008D422DD902386144491B92B2B1FBF7F5B0
:1004580007FB151142EA014205FB0EF1914208D94A
:100468001CEB020205F1FF3816D2914214D9023D65
:100478006244521A45EA004138E73146304608E7F7
:100488003946E6E61046FBE64845A9D2B9EB02082C
:1004980065EB0C0E013BA3E74546EAE72B4694E7DC
:1004A8004046D1E7D0467BE7023D624432E7084642
:1004B8000AE76444023842E7704700BF38B50E4B7C
:1004C8001A784FF47A73B3FBF2F30C4A05461068B6
:1004D800B0FBF3F000F0DCFA044658B90F2D09D848
:1004E800024629464FF0FF3000F092FA044B2046AE
:1004F8001D6038BD0120FCE7000000200C00002032
:100508000400002008B50B4B1A6842F400721A6008
:100518001A6842F480621A601A6842F480721A609B
:10052800032000F063FA0020FFF7C8FF02F0A2F9E9
:10053800002008BD003C0240034A044B11681B78A8
:100548000B441360704700BF7C00002000000020AF
:10055800014B1868704700BF7C00002038B504467E
:10056800002800F09B80056C25B902F09FF96564AE
:1005780084F83C50236CDB0600F18E80236C23F456
:10058800885323F0020343F002032364444B5A6860
:1005980022F440325A605A6861680A435A602368F4
:1005A80021695A6822F480725A605A6842EA012224
:1005B8005A605A68A16822F040725A605A680A4321
:1005C8005A609A68E16822F400629A609A680A435D
:1005D8009A603449A26A8A4252D0996821F07061BF
:1005E800996099680A439A609A68E16A22F04052D1
:1005F8009A609A680A439A609A6822F002029A609E
:100608009A68217E42EA41029A6094F82020002AE2
:100618003ED05A68616A42F400625A605A6822F40D
:1006280060425A605A68013942EA41325A60DA6ACD
:10063800E16922F47002DA62DA6A013942EA0152A7
:10064800DA629A6822F400729A609A6894F8301014
:1006580042EA41229A609A68616922F480629A604B
:100668009A68002042EA81229A606064236C23F031
:10067800030343F001032364002384F83C3038BDAE
:100688009A6822F070629A609A6822F04052B2E743
:100698005A6822F40062C9E70120EDE70120EEE77D
:1006A800002301400100000F82B00023019390F85D
:1006B8003C30012B66D0012380F83C3003689A68EF
:1006C800D20705D59A68D10714D4002002B0704724
:1006D8009A682D4942F001029A602C4A1268B2FBCE
:1006E800F1F202EB42020192019A002AEAD0019A41
:1006F800013AF8E7026C22F4E06222F0010242F4C7
:10070800807202645A68520541BF026C22F440525A
:1007180042F480520264026C12F480521CBF426C94
:1007280022F006024264002280F83C206FF0220288
:100738001A605A6842F0806242F020025A60144AF5
:10074800516811F01F0F134919D18B4207D001F5D9
:1007580080718B420CD1526812F01F0FB5D1986886
:1007680010F04050B1D19A6842F080429A60ADE7EB
:1007780009498B42A9D1526812F0100FEEE78B425B
:10078800A3D1ECE70220A1E740420F000C000020B3
:1007980000230140002001400022014070477047BB
:1007A80038B5036819685A688D0704462BD5900632
:1007B80029D5226CD1065EBF226C42F400722264F5
:1007C8009A6812F0405F17D1227EAAB9DA6A12F449
:1007D800700F02D09A6852050ED45A6822F020028F
:1007E8005A60236C23F480732364236CDB045EBF9C
:1007F800236C43F001032364204601F015FE2368AF
:100808006FF012021A60236819685A684D0732D5CA
:10081800100630D5226CD1065EBF226C42F400521D
:1008280022649A6812F4401F1ED19A6B12F4401F7A
:1008380002D09A68520517D45A68550514D49A6894
:1008480012F0405F10D1227E72B95A6822F08002FD
:100858005A60236C23F480532364236CD8055EBF4D
:10086800236C43F001032364204600F0BDF823689D
:100878006FF00C021A60236819685A68C9070FD507
:1008880055060DD51B68D8070AD5236C43F4803369
:1008980023642046FFF782FF23686FF001021A6085
:1008A800236819685A6889060DD552010BD5626C00
:1008B8006FF0200542F00202626420461D60FFF7D7
:1008C8006EFF23681D6038BDF7B50023019390F8CB
:1008D8003C30012B64D0012380F83C300D6803685C
:1008E8008E68092DACB231D904EB4402DF681E3A98
:1008F8004FF0070C0CFA02FC27EA0C07DF60DF68F0
:1009080006FA02F23A43DA604968062901EB8102E5
:100918002BD8596B053A1F26964021EA06015963E0
:10092800596B04FA02F20A435A632B4A934207D1DD
:10093800122D37D1D2F8043343F48003C2F80433BC
:10094800002380F83C30184603B0F0BD1A6905EB67
:10095800450C072707FA0CF722EA07021A611A69F9
:1009680006FA0CF616431E61CEE70C294FF01F015C
:100978000BD81E6B233A914026EA01011963196BC3
:1009880004FA02F20A431A63CFE7DE6A413A914059
:1009980026EA0101D962D96A94400C43DC62C4E7B3
:1009A8000220D1E7A5F11003012BC9D80B4A5368DF
:1009B800102D43F400035360C2D1094B094A1B6848
:1009C800B3FBF2F30A2253430193019B002BB7D0E8
:1009D800019B013BF8E700BF0020014000230140D4
:1009E8000C00002040420F00704700000749CA6809
:1009F80022F4E0620302120403F4E063120C1343CE
:100A080043F0BF6343F40033CB60704700ED00E070
:100A1800164B30B5DC68C4F30224C4F10703251D66
:100A2800042B28BF0423062D4FF0FF358CBF033C51
:100A3800002405FA03F321EA0303A54022EA05028C
:100A4800A340002843EA0203ACBF00F16040084A13
:100A58004FEA0313B8BF00F00F00DBB2AABF00F5DE
:100A68006140135480F8003330BD00BF00ED00E052
:100A780014ED00E0002807DB4109044A00F01F00DC
:100A88000123834042F82130704700BF00E100E0B5
:100A98000138B0F1807F0BD24FF0E023054A58614E
:100AA800F02182F823100020072298611A6170470C
:100AB8000120704700ED00E02DE9F04F6D4ADFF8A6
:100AC800BC81DFF8BC9185B000230C6801279F40EA
:100AD80007EA040537EA040440F0B7804C6824F0BC
:100AE800100ABAF1020F16D14FEAD30E00EB8E0EA0
:100AF80003F0070BDEF820604FEA8B0B4FF00F0C6A
:100B08000CFA0BFC26EA0C0C0E6906FA0BF646EA00
:100B18000C06CEF82060D0F800B04FEA430E4FF034
:100B2800030C0CFA0EFC6FEA0C062BEA0C0B04F013
:100B3800030C0CFA0EFC0AF1FF3A4CEA0B0CBAF162
:100B4800010F0196C0F800C013D8D0F808C006EA13
:100B58000C0CCE6806FA0EFA4AEA0C0AC0F808A08D
:100B6800D0F804C02CEA070C27099F4047EA0C0775
:100B78004760C768019E37408E6806FA0EF63E4306
:100B8800C660E60061D54FF0000BCDF80CB0D8F880
:100B98004470394E47F48047C8F84470D8F8447018
:100BA80007F480470397039F23F0030707F1804763
:100BB80007F59C3703F0030ED7F808A04FEA8E0E0E
:100BC8004FF00F0C0CFA0EFCB0422AEA0C0C43D082
:100BD80006F58066B04241D006F58066B0423FD047
:100BE80006F58066B0423DD006F58066B0423BD03F
:100BF80048453BD006F50066B04239D006F5806618
:100C0800B0420CBF0726082606FA0EF646EA0C067E
:100C1800BE601668EF4314F4803F0CBF3E402E437D
:100C28001660566814F4003F0CBF3E402E435660D1
:100C3800966814F4801F0CBF3E402E439660D66819
:100C4800A40254BF3E402E43D6600133102B7FF4DC
:100C58003CAF05B0BDE8F08F5E46D5E70126D3E787
:100C68000226D1E70326CFE70426CDE70526CBE702
:100C78000626C9E7003C0140000002400038024057
:100C8800001402400AB1816170470904FBE701685A
:100C98004B6913F480634FF0000210D06FF4806347
:100CA8004B612023026380F83D3080F83E20036CBE
:100CB80080F83C2043F00403036401207047184681
:100CC80070472DE9F84606460F4691461D464FEAFD
:100CD800114A3368BAF1010F0CBF5C699C6927EAB5
:100CE8000404A4B2B4FA84F46409A14501D0002034
:100CF80017E06A1CEED0FFF72BFC089BC01AA8422D
:100D080001D8002DE5D100232022336386F83D2049
:100D180086F83E30326C86F83C3042F0200232646D
:100D28000120BDE8F8862DE9F04104460F46164635
:100D380098462568686927EA000080B2B8B16B69EF
:100D48005A0516D52B6843F400732B606FF4806343
:100D58006B6120220023236384F83D2084F83E3011
:100D6800226C42F00402226484F83C300120BDE881
:100D7800F081731CDED0FFF7EBFBA0EB0800B0425C
:100D880001D8002ED5D100232022236384F83D20EA
:100D980084F83E30226C42F02002E4E770B5044645
:100DA8000D46164621684B6913F0400301D0002018
:100DB80010E04A69D2060ED56FF010024A6120226F
:100DC800236384F83D2084F83E30226C226484F842
:100DD8003C30012070BDFFF7BBFB801BA84201D847
:100DE800002DDFD100232022236384F83D2084F8DE
:100DF8003E30226C42F02002E8E770B504460D460A
:100E0800164623685B695B0701D5002070BD204644
:100E1800FFF73DFFA8B96A1CF3D0FFF799FB801BC9
:100E2800A84201D8002DECD100232022236384F8A6
:100E38003D2084F83E30226C84F83C3042F0200299
:100E480022640120E2E770B504460D461646236881
:100E58005B691B0601D5002070BD2046FFF717FF10
:100E6800A8B96A1CF3D0FFF773FB801BA84201D80E
:100E7800002DECD100232022236384F83D2084F840
:100E88003E30226C84F83C3042F02002226401207B
:100E9800E2E7000070B5044608B9012070BD90F87B
:100EA8003D3003F0FF021BB980F83C2001F038FD0B
:100EB8002268242384F83D30136823F0010313606B
:100EC80000F090FF3F4B65689D4294BF3E4B3F4BFF
:100ED80098428CBF00230123002BDED12268394EB3
:100EE80051683B4BB0FBF3F321F03F011943B54286
:100EF800516088BF4FF49676116A88BF734321F01A
:100F08003F0184BF4FF47A76B3FBF6F301330B430A
:100F18001362D169431E2B4821F44F41854221F0C9
:100F2800FF0132D86D0040F6FC70B3FBF5F30133D6
:100F3800034242D0C3F30B031943D161D4E907300C
:100F48001168034321F0C0010B4313609168D4E991
:100F5800030321F40341034321F0FF010B43936092
:100F6800D4E90530D168034321F0FF010B43D36076
:100F7800136843F00103136000202023206484F8E1
:100F88003D30206384F83E0088E7A06850B905EB3F
:100F98004505B3FBF5F30133C3F30B037BB143F40E
:100FA8000043C9E719206843B3FBF0F30133C3F3E7
:100FB8000B0323B143F44043BEE70423BCE70123FA
:100FC800BAE700BFA08601007F841E00FF083D002D
:100FD80040420F002DE9F043044685B098460C9F27
:100FE8000D469146FFF7B4FA94F83D30202B06469B
:100FF80004D00225284605B0BDE8F08300905A4980
:10100800192301222046FFF75CFE0028F1D194F84D
:101018003C30012BEDD02168012384F83C300B686B
:10102800DB075EBF0B6843F001030B600B6823F41A
:1010380000630B60212384F83D30102384F83E3090
:1010480000232364A4F82A80638D2385474BE36239
:10105800E36AC4F82490082B04D0012B02D013F5BE
:10106800803F04D10B6843F480730B6002E0236B6C
:10107800122BF7D000963B4600224FF00111204674
:10108800FFF71FFE08B10125B4E723692268B3F50D
:10109800804F21D105F0FE051561354933463A46A2
:1010A8002046FFF740FE05460028ECD12368039050
:1010B8005A6903929B690393039B238DF3B92168B3
:1010C8000A6842F400720A60202284F83D2084F8FD
:1010D8003C3084F83E308DE7EB1103F0060343F013
:1010E800F0031361234933463A462046FFF71BFEB7
:1010F8000028C8D12368EDB21D61CEE732463946D3
:101108002046FFF7A0FE40B1236C042B01BF2268E4
:10111800136843F400731360B5E7636A20681A46DE
:1011280012F8011B01616262628D013A92B2628516
:10113800228DD0F814C0511E89B21CF0040F2185ED
:101148000AD049B15978016102336362638D013B6A
:101158009BB2023A63852285324639462046FFF71C
:101168004CFE0028A9D0CFE7020010000000FFFFC6
:1011780002000100080001002DE9F043044689B08F
:101188009846109F0E469146FFF7E2F994F83D30D5
:10119800202B054604D00226304609B0BDE8F0836E
:1011A80000909749192301222046FFF78AFD00285D
:1011B800F1D194F83C30012BEDD02168012384F85B
:1011C8003C300B68D8075EBF0B6843F001030B6027
:1011D8000B6823F400630B60222384F83D3010234E
:1011E80084F83E3000232364A4F82A80638D238585
:1011F800844BE362E36A0A68C4F8249042F480628C
:10120800082B0A6004D0012B02D013F5803F04D1CB
:101218000B6843F480730B6002E0236B112BF7D04B
:1012280000953B4600224FF001112046FFF749FD8B
:1012380008B10126B0E722692368B2F5804F27D1AB
:1012480046F00106F6B21E616F492B463A46204623
:10125800FFF769FD06460028EBD1238D2168002B96
:101268004AD103904B6903938B690393039B0B68E3
:1012780043F400730B60DFF89881238D002B63D152
:10128800202284F83D2084F83C3084F83E3083E7FF
:101298004FEAE61808F0060848F0F0021A615B49C0
:1012A8002B463A462046FFF73EFD0028C1D1236869
:1012B8005549F6B21E613A462B462046FFF733FDE4
:1012C80002460028B5D123680790596907919969A2
:1012D80007910799196841F48071196020460095B3
:1012E8003B464FF00111FFF7ECFC0028A1D1226822
:1012F80048F0F1031361A7E7012B0AD10B6823F427
:1013080080630B6004904B6904938B690493049B7E
:10131800ADE7022B0B680DD123F480630B600B68DB
:1013280043F400630B6005904B6905938B69059343
:10133800059BA0E743F480630B6006904B69069316
:101348008B690693069B96E7032B63D8012B16D16E
:101358002A4639462046FFF721FD00287FF469AF69
:1013680023681A69636A1A70636A01336362238D9A
:10137800013B2385638D013B9BB263857DE7022B8F
:1013880000953B464FF00002414620461AD1FFF730
:1013980098FC00287FF44DAF23681A6842F4007265
:1013A8001A601A69636A1A70626A531C6362238D31
:1013B800013B2385638D013B9BB2638523681B69D1
:1013C8005370D1E7FFF77DFC024600287FF431AF68
:1013D8002368196821F4806119601969636A1970B2
:1013E800636A009501336362238D013B2385638D16
:1013F800013B9BB2638541463B462046C7E700BF99
:10140800020010000000FFFF0200010008000100B8
:10141800040001002A4639462046FFF7BFFC002891
:101428007FF407AF23681A69636A1A70626A531CEB
:101438006362238D013B2385638D013B9BB26385EA
:101448002368596949077FF518AFB8E7F8B5044626
:10145800002800F08C8090F8413003F0FF022BB98F
:10146800454B80F84020436301F092FA226802213C
:1014780084F84110D36923F47B6323F00F03D3610D
:10148800636911628B42E26873D0A368002A0CBFBB
:10149800102520250120202B98BF6D0000F04AFD63
:1014A80023696269B3F5007F59D1E3680A21002BEB
:1014B80053D0AD00B0FBF5F34B43B3FBF2F30A2274
:1014C8000533B3FBF2F303F001025B08991EFD2913
:1014D80049D81202134322692068DFF8ACC0E668D5
:1014E800A56913430362D4E90121C36942EA0107EC
:1014F80003EA0C033B4333432B4343F40063C361C8
:10150800236A012B23D11D4B63631D4F1D4B98424A
:1015180018BF4FF04027B2F5007FFB6903EA0C03C0
:10152800FB614FF002033B621CBFB2FA82F35B0916
:10153800F86914BF1B024FF480733143194380B21A
:10154800294340EA01039BB243F40063FB61002096
:101558000123606484F84130F8BDED00AAE70A2150
:10156800B0FBF5F3A8E7636C43F010036364012054
:10157800F2E70022AEE700BF0F1600080D170008BB
:10158800003400400038004040F0FFFF10B500294B
:1015980033D0002A31D090F84030012B0AD00123F3
:1015A80080F8403090F84130012B4FF0000303D011
:1015B80080F8403002201FE0032480F84140436453
:1015C80003684162DC69282104F00704E140C90787
:1015D80044BF520092B2028542855A6842F0A00286
:1015E8005A60DA6952055EBFDA6942F48062DA61EC
:1015F800002380F84030184610BD0120FCE7436BFB
:101608001847704770471FB503689A68019290F8A9
:101618004120042A044636D1019AD10717D55A68C1
:10162800520614D5C26AD96822F8021BC262428ED9
:10163800013A92B24286428E92B242B95A6822F078
:1016480060025A60012380F84130FFF7DAFF019BFE
:10165800590618D523685A68920614D55A6822F094
:1016680060025A6000220292DA6802929B68029332
:10167800029B012384F84130636C43F002036364E6
:101688002046FFF7BFFF94F84130032B36D1019B6A
:101698009B0719D522685368180615D5636A33F86D
:1016A800021BD1606362638D013B9BB26385638DCE
:1016B8009BB24BB9536823F0A0035360012384F80D
:1016C8004130204600F0AAFE019B190716D5236871
:1016D8005A68920612D55A6822F0A0025A6000226F
:1016E80003929B680393039B012384F84130636C46
:1016F80043F0040363642046FFF784FF04B010BD81
:101708007047000010B502688E49936886B0044699
:1017180000938D4B8A4218BF4FF04023996801917E
:101728005168029159680391416831F4007140F0A1
:101738009380009B99071AD5029B1B0617D5436A0D
:10174800991C1B884162D360438D013B9BB2438542
:10175800438D9BB25BB9536823F0A0035360438E5B
:101768009BB223B9012380F84130FFF7C9FF019BE1
:10177800D80722D5039B59061FD52168714A724B99
:10178800914218BF4FF04023E26AD968901CE0628A
:101798001180628E013A92B26286628E92B262B90A
:1017A8005A6822F060025A60638D9BB22BB90123FC
:1017B80084F841302046FFF7A3FF019B5A0622D543
:1017C800039B9B061FD523685E495F4A8B4218BF5F
:1017D8004FF040222046516821F0600151605A685C
:1017E80022F0A0025A6000220492DA6804929B68F0
:1017F8000493049B012384F84130636C43F0020393
:101808006364FFF7FFFE009B180740F19880029B76
:10181800990640F1948023684A495A6822F0A00248
:101828005A60494A8B4218BF4FF04022516821F054
:1018380060015160002205929B680593059B012376
:1018480084F84130636C204643F00403636406B0B7
:10185800BDE81040FFF7D6BE019A92071AD5039A41
:10186800110617D5426A911C12884162DA60428DCE
:10187800013A92B24285428D92B25AB95A6822F020
:10188800A0025A60438E9BB223B9012380F84130ED
:10189800FFF736FF009BDA071CD5029B5B0619D5BC
:1018A800E36A2268981CD168E0621980638E013B64
:1018B8009BB26386638E9BB263B9536823F060035F
:1018C8005360638D9BB22BB9012384F841302046C5
:1018D800FFF716FF009B58061BD5029B990618D5E3
:1018E80022681849536823F060035360164B8A42F4
:1018F80018BF4FF0402320465A6822F0A0025A60D1
:10190800012384F84130636C43F002036364FFF7FA
:1019180079FE019B1A0712D5039B9B060FD52268F7
:101928000849094B8A4218BF4FF04023596821F0F3
:10193800A0015960536823F0600353607FE706B045
:1019480010BD00BF00380040003400402DE9F341CD
:10195800044618B9012002B0BDE8F0810368DD072C
:1019680010D42368980758D423681A0700F19A807E
:1019780023685B0700F1BA80A269002A40F022813F
:101988000020E8E78C4B9A6802F00C02042A07D082
:101998009A6802F00C02082A0AD15B68590207D536
:1019A800854B1B689A03DCD56368002BD9D1D1E736
:1019B8006368814DB3F5803F11D12B6843F48033C0
:1019C8002B60FEF7C5FD7C4E054633689B03C8D4E3
:1019D800FEF7BEFD401B6428F7D90320BBE7B3F52B
:1019E800A02F04D12B6843F480232B60E5E72A68F5
:1019F80022F480322A602A6822F480222A60002B8E
:101A0800DFD1FEF7A5FD06462B689F03A9D5FEF793
:101A18009FFD801B6428F7D9DFE7674B9A6812F0AF
:101A28000C0F07D09A6802F00C02082A11D15B68E3
:101A38005E020ED4604A13689D0702D5E368012B45
:101A480088D11368216923F0F80343EAC1031360BE
:101A58008AE7E268594BB2B101221A60FEF778FDB5
:101A6800554D06462B68980707D52B68226923F041
:101A7800F80343EAC2032B6076E7FEF769FD801B93
:101A88000228EFD9A9E71A60FEF762FD4A4E05461B
:101A9800336899077FF568AFFEF75AFD401B0228A7
:101AA800F6D99AE76269454B82B10122C3F8802EC4
:101AB800FEF74EFD404E0546736F9F073FF558AF42
:101AC800FEF746FD401B0228F6D986E7C3F8802EAC
:101AD800FEF73EFD384E0546736F98077FF548AF11
:101AE800FEF736FD401B0228F6D976E7324B1A6C12
:101AF80012F0805228D101921A6C42F080521A6476
:101B08001B6C03F080530193019B01272C4D2B681C
:101B1800D9051BD5A368284D012B27D12B6F43F07E
:101B280001032B67FEF714FD234E054641F2883862
:101B3800336F9B0739D5002F3FF41EAF1E4A136C35
:101B480023F08053136417E70027DFE72B6843F47B
:101B580080732B60FEF7FCFC06462B68DA05D9D4A7
:101B6800FEF7F6FC801B0228F7D936E7052B04D1CF
:101B78002B6F43F004032B67D0E72A6F22F0010292
:101B88002A672A6F22F004022A67002BCAD1FEF7BF
:101B9800DFFC41F2883806462B6F9807CBD5FEF755
:101BA800D7FC801B4045F7D917E7FEF7D1FC401B4F
:101BB8004045BDD911E700BF003802400000474248
:101BC80000700040224DAB6803F00C03082B3FF473
:101BD800C1AE204B022A4FF000021A662BD1FEF745
:101BE800B7FC06462B6899011FD4D4E90732134382
:101BF800626A43EA8213E26A43EA0263A26A52080B
:101C0800013A43EA02436B60124B114D01221A66F6
:101C1800FEF79EFC04462B689A013FF5B1AEFEF72D
:101C280097FC001B0228F6D9D7E6FEF791FC801B2B
:101C38000228D7D9D1E6FEF78BFC04462B689B0116
:101C48007FF59EAEFEF784FC001B0228F6D9C4E699
:101C58000038024000004742134908B58B6803F07A
:101C68000C03042B1CD0082B1CD14A684B6849680C
:101C780013F4800314BF0D480D48C1F3881118BF31
:101C8800002302F03F02A1FB0001FEF799FA064B80
:101C98005B68C3F3014301335B00B0FBF3F008BD9D
:101CA8000248FCE70248FAE70038024000127A00CE
:101CB8000024F4002DE9F0410D46044610B9012036
:101CC800BDE8F081434B1A6802F00F028A4227D31D
:101CD80021688F072CD4C8073FD43E4B1A6802F0FE
:101CE8000F02AA4264D8226851076AD4130707D59D
:101CF800394A2169936823F4604343EAC103936036
:101D0800FFF7AAFF344B354A9B68C3F30313D35C30
:101D1800D840334B18600020FEF7D0FB0020CFE7F7
:101D2800CAB21A701B6803F00F038B42C7D1CFE702
:101D3800294B11F0040F1EBF9A6842F4E0529A60D2
:101D48000E0742BF9A6842F460429A609A68A06897
:101D580022F0F00202439A60BDE762681E4B012A36
:101D68001CD11B6813F4003FA9D01B4EB36823F0A5
:101D780003031343B360FEF7EBFB41F288380746D1
:101D8800B368626803F00C03B3EB820FA5D0FEF7CB
:101D9800DFFBC01B4045F3D9032091E7911E0129C1
:101DA8001B6802D813F0007FDEE713F0020FDBE7B1
:101DB800EAB21A701B6803F00F03AB427FF47FAFDF
:101DC80091E70549E0688B6823F4E05303438B608F
:101DD8008CE700BF003C024000380240682D000834
:101DE8000C000020044B054A9B68C3F38223D35C94
:101DF800034A1068D840704700380240782D000820
:101E08000C000020036813F0050FF7B5044605D150
:101E1800236813F002032AD1002026E0424B434EE8
:101E280000229A66FEF794FB054633681F0116D414
:101E3800D4E901231B0743EA8213C6F884303A4BDE
:101E48003A4E01229A66FEF783FB0546336818016D
:101E5800DED4FEF77DFB401B0228F7D904E0FEF72D
:101E680077FB401B0228E0D9032003B0F0BD002314
:101E780001932E4B2E4D1A6C42F080521A641B6C43
:101E880003F080530193019B2B6843F480732B600C
:101E9800FEF75EFB06462B68D9051BD5234DE26885
:101EA8002B6F13F440731BD1E36803F44072B2F54F
:101EB800407F1E4A34D1916823F0704021F4F81114
:101EC80020F4407001439160116FC3F30B030B437F
:101ED8001367A1E7FEF73CFB801B0228DBD9C3E7A9
:101EE80002F440729342DFD02B6F0F4A0121C2F8EF
:101EF800401E23F440730021C2F8401E2B672B6F4D
:101F0800DA07D1D5FEF724FB41F2883706462B6F56
:101F18009B07C9D4FEF71CFB801BB842F7D9A3E77F
:101F2800916821F4F811CEE70000474200380240DA
:101F38000070004001281BD10E4B9A68120217D47A
:101F48005A6812F4800F5A6814BF0B4B0B4B02F0FF
:101F58003F02B3FBF2F3074AD2F88400D2F8842098
:101F6800C0F388105843C2F30273B0FBF3F0704714
:101F7800002070470038024000127A000024F40064
:101F8800022380F83D3003689A6802F00702062AA7
:101F98001EBF1A6842F001021A60012380F83D3022
:101FA80000207047304A0368904212D0B0F1804F49
:101FB8000FD0A2F57C4290420BD002F5806290428D
:101FC80007D002F58062904203D002F57842904231
:101FD80019D14A6823F070031343234A904229D049
:101FE800B0F1804F26D0A2F57C42904222D002F573
:101FF800806290421ED002F5806290421AD002F5AB
:102008007842904216D0194A904213D002F5806265
:1020180090420FD002F5806290420BD0A2F5983220
:10202800904207D002F58062904203D002F58062A8
:10203800904203D1CA6823F4407313434A6923F0DA
:102048008003134303608B68C3620B688362064B8B
:10205800984203D003F58063984201D10B6903636A
:1020680001234361704700BF000001400040014068
:1020780010B50446A0B190F83D3003F0FF021BB93B
:1020880080F83C2000F0D8FC0223206884F83D301A
:10209800211DFFF787FF012384F83D30002010BD84
:1020A8000120FCE710B58468114324F47F4441EA19
:1020B80003232343836010BD38B590F83C30012BCF
:1020C80004464FF0020327D0012280F83D3080F803
:1020D8003C200068836823F47F4323F07703836000
:1020E8000B68602B4BD032D8402B60D016D8202BF1
:1020F80003D009D833F0100208D1826822F07002A8
:10210800134343F0070338E0302BF6D0012384F85B
:102118003D30002384F83C30184638BD502BF5D1AB
:102128004A68CD68016A036A23F001030362836980
:1021380021F00A0123F0F00343EA05130A438361FF
:102148000262836823F0700343F0570315E0702B95
:102158000BD0B3F5005FD9D1CB68D1E90121FFF7E6
:10216800A1FF836843F4804307E0CB68D1E90121EC
:10217800FFF798FF836843F077038360C6E7036A35
:102188004D68C96823F0100303628269036A22F468
:10219800704223F0A00343EA051342EA0132826148
:1021A8000362836823F0700343F06703E5E74A6836
:1021B800CD68016A036A23F001030362836921F091
:1021C8000A0123F0F00343EA05130A43836102621C
:1021D800836823F0700343F04703CEE730B590F8E7
:1021E8003C30012B4FF0020314D0046880F83D30D6
:1021F8006268A3680D68496822F0700223F08003C2
:102208000B432A436260A360012380F83D3000231A
:1022180080F83C30184630BD07B58DF804008DF8BD
:10222800051001A8114600F031F903B05DF804FB70
:1022380013B500F047F9022210460121FFF7ECFF21
:102248000222AF210420FFF7E7FF022280210520A8
:10225800FFF7E2FF9DF80510062001228DF8040023
:10226800FFF7DAFF0DF1050000F01EF99DF80510E3
:102278009DF8040001F0200141F0070102228DF8C9
:102288000510FFF7C9FF9DF805100E2001228DF8F3
:102298000400FFF7C1FF0DF1050000F005F99DF8F6
:1022A80005109DF8040001F0370141F030010222C9
:1022B8008DF80510FFF7B0FF022200210F20FFF76D
:1022C800ABFF022200211A20FFF7A6FF02220021FD
:1022D8001B20FFF7A1FF022299210020FFF79CFF96
:1022E8003224022280214720FFF796FF9DF805102F
:1022F8008DF8044001222046FFF78EFF0DF10500FE
:1023080000F0D2F89DF805109DF8040041F0800116
:1023180002228DF80510FFF77FFF9DF805108DF854
:10232800044001222046FFF777FF0DF1050000F079
:10233800BBF89DF805109DF8040001F07F0102220A
:102348008DF80510FFF768FF002108460222FFF705
:1023580063FF02229E211046FFF75EFF02B010BD08
:1023680000F08CB870B5102498B0224600210EA851
:1023780000F0A6FC1422002107A800F0A1FC2246C8
:10238800002103A800F09CFC0024224B01941A6C45
:1023980042F080521A641B6C03F080530193019B36
:1023A8001D4B02941A6842F480421A601B6803F4B9
:1023B80080430293029B01264FF480330225CDE926
:1023C8000C634FF480030822CDE912534FF4A8732D
:1023D800CDE914230CA8072317931695FFF7B6FA2F
:1023E8000F23CDE907354FF4A0514FF48053CDE9C1
:1023F8000A1307A805210994FFF75CFC03234FF48F
:102408008170CDE9040303A80396FFF7FBFC18B01D
:1024180070BD00BF0038024000700040014B01222F
:102428001A7070470A000020014B01221A70704789
:1024380080000020044B1B7823B1012B034818BFF0
:10244800002070470248704708000020EA01002079
:102458008200002008B54FF4B4720021054800F04E
:102468002FFCBDE8084004484FF4B472002100F086
:1024780027BC00BF82000020EA0100200A4601466E
:102488000148FFF783B800BFFC03002007B50B46DF
:1024980064210246009103489421FEF79BFD03B096
:1024A8005DF804FBA803002007B5642302460093E7
:1024B800942101230248FEF75FFE03B05DF804FB98
:1024C800A8030020024801221021FEF7DBBB00BF51
:1024D800000C024010B514681B6891ED007AD4ED29
:1024E800017AD0ED006A67EE877A93ED017A9368F6
:1024F800E6EE877AD1ED016A93ED017AE6EE877A06
:10250800C2ED017A10BD000010B504460846114618
:102518009A68029B9B68FFF7DDFFD2ED017A0E49AE
:102528000E4AFDEEE77A17EE903A9BB213800A68DE
:1025380024F8123004EB42040232B32A63800A60A2
:1025480009D9074B074A1C7810781470064A187086
:10255800002313700B6010BD840400208804002041
:102568005C03002008000020090000202DE9F34149
:10257800DFF84C801F4698F8003004460D46164692
:1025880043B90C4B0C481860134600970A4621467D
:10259800FFF7BAFF98F80030012B08D1054B074820
:1025A80018602A46009733462146FFF7ADFF02B070
:1025B800BDE8F0815803002082000020EA010020D5
:1025C8005C030020F8B506460C2000F0C5FA013E71
:1025D800044605460027B74203DB25602046AC6069
:1025E800F8BD0C2000F0B8FA0137A8600560054670
:1025F800F1E700002DE9F0478CB0FDF783FFFFF706
:10260800B1FE1422002107A800F05AFB0024834BD6
:1026180000941A6B8248834DDFF850A242F0800282
:102628001A631A6B02F080020092009A01941A6BE6
:1026380042F001021A631A6B02F001020192019A38
:1026480002941A6B42F008021A631A6B02F008022D
:102658000292029A03941A6B42F004021A631A6BEC
:1026680002F004020392039A04941A6B42F00202E5
:102678001A631B6B03F00203224604930421049B94
:10268800FEF700FB224668484FF21001FEF7FAFAFF
:1026980001266348099407A9CDE90764FEF70CFAF7
:1026A80004235F4807A9CDE90736CDE90944FEF7B9
:1026B80003FA4FF2100307A95B48CDE90736CDE9C5
:1026C8000944FEF7F9F95948594A5A4B0462C0E9D6
:1026D80000234FF48043C0E90434C0E90244C0E950
:1026E8000644FEF7D7FB544854494FF40073C0E939
:1026F800001303614BF68033C0E90534C0E9024496
:10270800C0E90744FEF7A2FE1022214607A800F000
:10271800D7FA4B48AC604FF48033C5E900034FF05B
:1027280080574FF0C0632846C5E90A372C612C76DC
:1027380085F82040EC60EE6185F830406E61FDF769
:102748000DFF07A92846CDE9076609943D4E3E4F7F
:10275800FEF7BAF81022214607A800F0B1FA4FF0A8
:10276800804CAF23C6E900C330460923C6E90334C9
:10277800B460B461CDE90544FFF77AFC4FF48053A7
:1027880007A930460793FFF797FC05A92023304691
:10279800CDE90534FFF722FD2C4B3B602C4B2D4A2D
:1027A8001A60FFF745FDFFF755FE3046FFF7E8FBD7
:1027B8002846FDF779FF284B0593284B07930320FC
:1027C800274B0893FFF7FEFE05460320FFF7FAFEA6
:1027D800244E0446DFF898809AF80000FFF72AFE96
:1027E80098F8003038605BB196F80090B9F1000FA6
:1027F80006D10223B4213370FFF7B2FD88F80090A8
:10280800194B1A78002AE7D000221A7007A92B461C
:10281800224605A8FFF7AAFEDCE700BF0038024001
:102828000000024060030020000C0240A8030020C2
:1028380000540040A0860100FC030020003C00403A
:10284800002001404404002054030020EA01002035
:1028580058030020820000200213CE3D63B3FE3FE0
:10286800000080BF09000020800000200800002030
:102878000A00002082B00C4B002100915A6C42F4EF
:1028880080425A645A6C02F480420092009A019184
:102898001A6C42F080521A641B6C03F08053019347
:1028A800019B02B0704700BF0038024010B50446D3
:1028B80088B01422002103A800F002FA2268164BFF
:1028C8009A4226D103F58C33002401945A6C13489C
:1028D80042F480725A645A6C02F480720192019A2E
:1028E80002941A6B42F001021A631B6B03F0010396
:1028F80002930222029B03A90323CDE90323FEF7D7
:10290800DBF8122022462146FEF782F81220FEF755
:10291800B1F808B010BD00BF00200140000002401F
:1029280030B5044689B01422002103A800F0C8F984
:102938002268144B9A4222D1134C14480025019561
:10294800236B43F002032363236B03F00203019319
:10295800019B4FF410721223CDE903230123059341
:1029680003A904230793FEF7A7F80295236C43F401
:1029780000132364236C03F400130293029B09B031
:1029880030BD00BF0054004000380240000402403F
:10299800F0B5044689B01422002103A800F090F98C
:1029A8002268224B9A423FD103F5FE33002400945B
:1029B8001A6C1F4842F400421A641A6C02F400426E
:1029C8000092009A01941A6B42F001021A631A6B82
:1029D80002F001020192019A02941A6B42F0040279
:1029E8001A631B6B03F004030293029B0227102354
:1029F8000126062503A9CDE90337CDE90665FEF7CB
:102A08005BF84FF4A4530B48079503A9CDE90337A6
:102A1800CDE90546FEF750F8332022462146FDF75A
:102A2800F7FF3320FEF726F809B0F0BD003C004060
:102A380000000240000802400368B3F1804F82B0F2
:102A48000BD100230193064B1A6C42F001021A6461
:102A58001B6C03F001030193019B02B0704700BF98
:102A68000038024070477047FDF766BD0148FDF722
:102A780097BE00BF600300200148FEF7C0BD00BF3D
:102A8800FC0300200A4A116808B5034609B9094938
:102A980011601068694603448B4206D900F028F992
:102AA8000C2303604FF0FF3008BD1360FCE700BF44
:102AB8008C040020D80500200F49D1F8883043F451
:102AC8007003C1F888300D4B1A68002042F00102EB
:102AD8001A6098601A6822F0847222F480321A60B0
:102AE800074A5A601A6822F480221A60D8604FF0A8
:102AF80000638B60704700BF00ED00E000380240C3
:102B080010300024DFF834D0002103E00C4B5B5870
:102B1800435004310B480C4B42189A42F6D30B4AE7
:102B280002E0002342F8043B094B9A42F9D3FFF72D
:102B3800C3FF00F0E3F8FFF75DFD704700000220D7
:102B4800902D000800000020600000206000002098
:102B5800D8050020FEE70000024B0146186800F087
:102B680023B800BF5C00002070B50E4E0C463168DB
:102B7800054611B900F0ACF830602146284600F04F
:102B8800A7F8431C0AD0C41C24F00304A04207D0B1
:102B9800211A284600F09CF8013001D14FF0FF348B
:102BA800204670BD940400202DE9F843CD1C25F083
:102BB800030508350C2D38BF0C25002D074601DB11
:102BC800A94205D90C233B6000263046BDE8F883AE
:102BD800DFF8D08000F068F8D8F800301C465CBBFD
:102BE80029463846FFF7C0FF431C044655D1D8F89C
:102BF80000402646002E45D1002C48D02368314697
:102C0800384604EB030900F063F881453FD1216899
:102C18006D1A29463846FFF7A7FF013037D02368D9
:102C28002B442360D8F80030002B38D05A68A242D1
:102C38002BD100225A600FE02268521B1FD40B2AA6
:102C480017D96119A342256018BF5960636808BF86
:102C5800C8F8001062514B60384604F10B0600F0CA
:102C680029F826F00706231DF21AAED09B1BA350A5
:102C7800ABE7A3426268DDD1C8F80020ECE7234641
:102C88006468ACE734467668B4E71346CCE70C23AF
:102C98003B60384600F00EF897E72560DCE75B609C
:102CA800FFDE00BF90040020014800F04BB800BFD1
:102CB800D4050020014800F046B800BFD405002024
:102CC80002440346934200D1704703F8011BF9E719
:102CD80038B5064D0023044608462B60FFF7D2FEA0
:102CE800431C02D12B6803B1236038BDD0050020F6
:102CF800014B1868704700BF5C00002070B50D4D8F
:102D08000D4C641BA4100026A64209D10B4D0C4C97
:102D180000F01AF8641BA4100026A64205D170BD65
:102D280055F8043B98470136EEE755F8043B9847B9
:102D38000136F2E7882D0008882D0008882D000844
:102D48008C2D000870477047F8B500BFF8BC08BC68
:102D58009E467047F8B500BFF8BC08BC9E46704751
:102D68000000000000000000010203040607080933
:082D7800000000000102030449
:082D800078D4FF7F0100000080
:042D8800AD01000891
:042D8C0089010008B1
:102D90000100000010000000010201000024F40006
:102DA00000000000980400200005002068050020B5
:102DB0000000000000000000000000000000000013
:102DC0000000000000000000000000000000000003
:102DD00000000000000000000000000000000000F3
:102DE00000000000000000000000000010000020B3
:0400000508002B0DB7
:00000001FF
