:020000040800F2
:1000000000000220212A0008712A0008712A000835
:10001000712A0008712A0008712A000800000000F7
:10002000000000000000000000000000B5290008EA
:10003000712A000800000000B7290008B92900084B
:10004000712A0008712A0008712A0008712A000824
:10005000712A0008712A0008712A0008712A000814
:10006000712A0008712A0008712A0008712A000804
:10007000712A0008712A0008712A0008712A0008F4
:10008000712A0008712A0008BD290008712A000899
:10009000712A0008712A0008712A0008712A0008D4
:1000A000712A0008712A0008712A0008712A0008C4
:1000B000712A0008712A0008712A0008712A0008B4
:1000C000712A0008712A0008712A0008712A0008A4
:1000D000712A0008712A0008712A0008712A000894
:1000E000712A0008712A0008712A0008712A000884
:1000F000712A0008712A0008712A0008712A000874
:10010000712A0008712A0008712A0008C92900080C
:10011000712A0008712A0008712A0008712A000853
:10012000712A0008712A0008712A0008712A000843
:10013000712A0008712A0008712A0008712A000833
:10014000712A0008712A0008712A0008712A000823
:10015000712A0008712A0008712A0008712A000813
:10016000712A0008712A0008712A0008712A000803
:10017000712A0008712A0008712A00080000000096
:08018000712A0008712A000831
:1001880010B5054C237833B9044B13B10448AFF3C9
:1001980000800123237010BD100000200000000023
:1001A800CC2A000808B5034B1BB103490348AFF339
:1001B800008008BD0000000014000020CC2A0008C0
:1001C80053B94AB9002908BF00281CBF4FF0FF31B6
:1001D8004FF0FF3000F07AB9ADF1080C6DE904CEAC
:1001E80000F006F8DDF804E0DDE9022304B070470A
:1001F8002DE9F0478C460D460446089E002B51D148
:100208008A4217466DD9B2FA82FEBEF1000F0BD0B2
:10021800CEF1200C01FA0EF520FA0CFC02FA0EF7CA
:100228004CEA050C00FA0EF44FEA174A250CBCFB01
:10023800FAF81FFA87F90AFB18CC45EA0C4508FBBF
:1002480009F3AB420AD9ED1908F1FF3280F0238196
:10025800AB4240F22081A8F102083D44ED1AA4B255
:10026800B5FBFAF00AFB105544EA054400FB09F90E
:10027800A14509D9E41900F1FF3380F00A81A145AD
:1002880040F2078102383C44A4EB090440EA0840E4
:100298000021002E61D024FA0EF40023346073602C
:1002A800BDE8F0878B4207D9002E54D0002186E89C
:1002B80021000846BDE8F087B3FA83F1002940F031
:1002C8008E80AB4202D3824200F2FA80841A65EB38
:1002D80003050120AC46002E3FD086E81010BDE88B
:1002E800F08712B90127B7FBF2F7B7FA87FEBEF11C
:1002F800000F34D1EB1B3A0C1FFA87FC0121B3FB2A
:10030800F2F8250C02FB183345EA03450CFB08F309
:10031800AB4207D9ED1908F1FF3002D2AB4200F227
:10032800D1808046ED1AA3B2B5FBF2F002FB10555E
:1003380043EA05440CFB00FCA44507D9E41900F185
:10034800FF3302D2A44500F2B8801846A4EB0C048F
:1003580040EA08409DE731463046BDE8F087CEF1D7
:10036800200405FA0EF307FA0EF720FA04F83A0CFF
:1003780025FA04F448EA0308B4FBF2F14FEA1845F9
:1003880002FB11441FFA87FC45EA044501FB0CF304
:10039800AB4200FA0EF409D9ED1901F1FF3080F0F3
:1003A8008A80AB4240F2878002393D44EB1A1FFA3B
:1003B80088F5B3FBF2F002FB103345EA034500FB76
:1003C8000CF3AB4207D9ED1900F1FF386FD2AB42FD
:1003D8006DD902383D44EB1A40EA01418FE7C1F17B
:1003E800200722FA07F88B4005FA01F448EA0303CC
:1003F80020FA07FE4FEA134CFD404EEA040EB5FB07
:10040800FCF94FEA1E440CFB19551FFA83F844EA1D
:10041800054509FB08F4AC4202FA01F200FA01FAB8
:1004280008D9ED1809F1FF3043D2AC4241D9A9F1FE
:1004380002091D442D1B1FFA8EFEB5FBFCF00CFBB8
:1004480010554EEA054400FB08F8A04507D9E41802
:1004580000F1FF3529D2A04527D902381C4440EACB
:100468000940A4EB0804A0FB02894C45C6464D464A
:1004780015D312D056B1BAEB0E0364EB050404FA97
:1004880007F7CB401F43CC40376074600021BDE8BC
:10049800F0871846F8E69046E0E6C245EAD2B8EB9F
:1004A800020E69EB03050138E4E72846D7E7404622
:1004B80091E78146BEE7014678E702383C4445E7C4
:1004C800084608E7A8F102083D442BE7704700BF3B
:1004D80038B50E4A0E4B054618784FF47A73B3FBBD
:1004E800F0F31068B0FBF3F000F0E6FA044658B9F0
:1004F8000F2D09D8024629464FF0FF3000F09AFA2E
:10050800044B20461D6038BD012038BD0C0000207A
:10051800000000200400002008B50B4B1A6842F4C4
:1005280000721A601A6842F480621A601A6842F40B
:1005380080721A60032000F06BFA0020FFF7C8FFF2
:1005480002F03CF9002008BD003C0240034A044B7D
:1005580011681B780B441360704700BF40000020EF
:1005680000000020014B1868704700BF40000020C1
:1005780038B50446002800F09B80056C25B902F0C8
:1005880039F9656484F83C50236CDB0600F18E80F1
:10059800236C23F4885323F0020343F002032364FB
:1005A800444B5A6822F440325A605A6861680A43D8
:1005B8005A60236821695A6822F480725A605A681E
:1005C80042EA01225A605A68A16822F040725A60D1
:1005D8005A680A435A609A68E16822F400629A608D
:1005E8009A680A439A603449A26A8A4252D0996842
:1005F80021F07061996099680A439A609A68E16A83
:1006080022F040529A609A680A439A609A68217E5A
:1006180022F002029A609A6842EA41029A6094F8CB
:100628002020002A3ED05A68616A42F400625A606B
:100638005A6822F460425A605A68013942EA4132E3
:100648005A60DA6AE16922F47002DA62DA6A013918
:1006580042EA0152DA629A6894F8301022F4007281
:100668009A609A6842EA41229A609A68616922F41B
:1006780080629A609A68002042EA81229A606064E7
:10068800236C23F0030343F001032364002384F85D
:100698003C3038BD9A6822F070629A609A6822F0FD
:1006A8004052B2E75A6822F40062C9E70120EDE738
:1006B800012038BD002301400100000F82B0002353
:1006C800019390F83C30012B67D0012380F83C302F
:1006D80003689A68D10705D59A68D20714D4002010
:1006E80002B070479A682E4942F001029A602D4A7A
:1006F8001268B2FBF1F202EB42020192019A002A5F
:10070800EAD0019A013AF8E7026C22F4E06222F09A
:10071800010242F4807202645A68510541BF026CBA
:1007280022F4405242F480520264026C12F4805265
:100738001CBF426C22F006024264002280F83C2072
:100748006FF022021A605A6842F0806242F020027A
:100758005A60154A516811F01F0F14491AD18B427B
:1007680006D001F580718B420BD15268D206B6D102
:10077800986810F04050B2D19A6842F080429A606E
:10078800AEE70B498B42AAD1526802F01F020F2A2A
:10079800EED9A4E78B42A2D1EAE70220A0E700BF86
:1007A80040420F000C0000200023014000200140BF
:1007B800002201407047704738B5036819685A68C5
:1007C8008D0704462BD5900629D5226CD1065EBF2D
:1007D800226C42F4007222649A6812F0405F17D1CA
:1007E800227EAAB9DA6A12F4700F02D09A6852050A
:1007F8000ED45A6822F020025A60236C23F48073C6
:100808002364236CDB045EBF236C43F00103236481
:10081800204601F05FFE23686FF012021A60236819
:1008280019685A684D0732D5100630D5226CD106A2
:100838005EBF226C42F4005222649A6812F4401F90
:100848001ED19A6B12F4401F02D09A68520517D431
:100858005A68550514D49A6812F0405F10D1227E68
:1008680072B95A6822F080025A60236C23F48053CC
:100878002364236CD8055EBF236C43F00103236413
:10088800204600F0C3F823686FF00C021A60236852
:1008980019685A68C9070FD555060DD51B68D807BA
:1008A8000AD5236C43F4803323642046FFF782FF84
:1008B80023686FF001021A60236819685A6889066C
:1008C8000DD552010BD5626C6FF0200542F0020283
:1008D800626420461D60FFF76EFF23681D6038BD07
:1008E800F7B50023019390F83C30012B00F083808A
:1008F8000D6804688A680123092D80F83C30AEB27F
:100908002AD906EB4603E7681E3B4FF0070E0EFA9E
:1009180003FE27EA0E07E760E76802FA03F33B43A2
:10092800E3604A68062A4FEA820325D81344676BB6
:10093800591F1F238B4027EA03036363626B06FA80
:1009480001F1114361632D4B9C4234D0002380F8A0
:100958003C30184603B0F0BD276905EB45034FF05E
:10096800070E0EFA03FE27EA0E072761276902FA27
:1009780003F33B432361D4E70C2A0ED81344216BBD
:10098800A3F123021F23934021EA03032363236B6C
:1009980006FA02F21A432263D5E71344E16A413B9F
:1009A8001F229A4021EA0202E262E26A06FA03F191
:1009B8001143E162C7E7122D04D1114A536843F489
:1009C80080035360A5F11003012BBFD80C4A53686C
:1009D800102D43F400035360B8D10A4B0A4A1B6830
:1009E800B3FBF2F20A2353430193019B002BADD0D2
:1009F800019B013BF8E70220ACE700BF0020014063
:100A0800002301400C00002040420F007047000006
:100A1800074AD36823F4E0631B041B0C43F0BF634D
:100A2800000243F4003300F4E0600343D3607047EE
:100A380000ED00E0174B30B5DC68C4F30224C4F1C4
:100A48000703251D042B28BF0423062D4FF001059D
:100A580005FA03F303F1FF338CBF033C002419406C
:100A6800A14005FA04F4013C2240002842EA0102B0
:100A78004FEA0212ADBF00F1604000F00F00064BD4
:100A880000F56140B5BFD2B2D2B21A5480F8002343
:100A980030BD00BF00ED00E014ED00E0002808DBE9
:100AA8004209012300F01F0003FA00F0014B43F84C
:100AB8002200704700E100E00138B0F1807F0AD2DF
:100AC800064B074A5860F02182F8231000200722BD
:100AD80098601A6070470120704700BF10E000E07E
:100AE80000ED00E02DE9F04F85B00B68DFF8AC8130
:100AF800684ADFF8AC91019300234FF0010E019C86
:100B08000EFA03FE0EEA0406B64540F0AE804C68C5
:100B180024F01007022F16D14FEAD30A00EB8A0AF5
:100B280003F0070BDAF820504FEA8B0B4FF00F0C4D
:100B38000CFA0BFC25EA0C0C0D6905FA0BF545EAD5
:100B48000C05CAF820504FEA430A0325D0F800B034
:100B580005FA0AF5ED4304F0030C0BEA050B0CFA51
:100B68000AFC013F4CEA0B0C012FC0F800C011D859
:100B7800876807EA050BCF6807FA0AFC4CEA0B07F7
:100B88008760476827EA0E0EC4F300179F4047EABC
:100B98000E074760C7683D408F6807FA0AF73D436C
:100BA800C560E50061D54FF0000BCDF80CB0D8F862
:100BB8004470394D47F48047C8F84470D8F84470F9
:100BC80007F480470397039F23F0030707F1804743
:100BD80007F59C3703F0030CD7F808A04FEA8C0CF4
:100BE8004FF00F0E0EFA0CFEA8422AEA0E0E43D062
:100BF80005F58065A84241D005F58065A8423FD03B
:100C080005F58065A8423DD005F58065A8423BD032
:100C180048453BD005F50065A84239D005F5806503
:100C2800A84214BF0825072505FA0CF545EA0E0564
:100C3800BD601568F74314F4803F0CBF3D40354351
:100C48001560556814F4003F0CBF3D4035435560AE
:100C5800956814F4801F0CBF3D4035439560D568F6
:100C6800A40254BF3D403543D5600133102B7FF4B7
:100C780044AF05B0BDE8F08F5D46D5E70125D3E761
:100C88000225D1E70325CFE70425CDE70525CBE7E6
:100C98000625C9E7003C0140000002400038024038
:100CA800001402400AB1816170470904FBE701683A
:100CB8004B6913F480634FF0000210D06FF4806327
:100CC8004B612023026380F83D3080F83E20036C9E
:100CD80080F83C2043F00403036401207047184661
:100CE80070472DE9F843044617469946C1F307486B
:100CF8008EB22568B8F1010F0CBF6B69AB6936EA93
:100D0800030314BF0120002008B9BDE8F8836B690C
:100D18005A0516D52B6843F400732B606FF4806373
:100D28006B6120220023236384F83D2084F83E3041
:100D3800226C42F00402226484F83C300120BDE8B1
:100D4800F8837B1CD5D0FFF70DFCA0EB0900874288
:100D580001D3002FCDD100232022236384F83D2026
:100D680084F83E30226C42F02002E4E770B5044675
:100D78000D46164623685B695B0701D5002070BDE8
:100D88002046FFF794FFA8B96A1CF3D0FFF7EAFBE7
:100D9800801B854201D3002DECD100232022236340
:100DA80084F83D2084F83E30226C84F83C3042F0D0
:100DB80020022264012070BD70B504460D46164617
:100DC8002068436913F0400301D0002070BD4269D8
:100DD800D2060ED56FF0100242612022236384F8F8
:100DE8003D2084F83E30226C226484F83C30012097
:100DF80070BDFFF7B7FB801BA84201D8002DDFD1DB
:100E080000232022236384F83D2084F83E30226C9E
:100E180042F02002E8E72DE9F843089E0446904690
:100E28001F46C1F307498DB22368B9F1010F0CBF02
:100E38005B699B6935EA03030CBF01230023434523
:100E480002D00020BDE8F8837B1CEDD0FFF78AFBB9
:100E5800801B874201D3002FE6D100232022236381
:100E680084F83D2084F83E30226C84F83C3042F00F
:100E7800200222640120BDE8F88370B504460D46BF
:100E8800164623685B691B0601D5002070BD204605
:100E9800FFF70DFFA8B96A1CF3D0FFF763FB801BAF
:100EA800854201D3002DECD100232022236384F84E
:100EB8003D2084F83E30226C84F83C3042F0200219
:100EC8002264012070BD000070B5044608B90120F5
:100ED80070BD90F83D3003F0FF021BB980F83C204C
:100EE80001F0C2FC2268242384F83D30136823F003
:100EF8000103136000F084FF6568414B9D424DD8A3
:100F0800404B9842E3D922683F495368B0FBF1F15E
:100F180023F03F030B435360136A23F03F0301316F
:100F280019431162D169364B21F44F419D4221F09A
:100F3800FF0100F1FF3048D86D00B0FBF5F001303B
:100F4800C0F30B03042B38BF04230B43D361116890
:100F5800206AE36921F0C00103430B4313609168E1
:100F6800E068236921F40341034321F0FF010B43A7
:100F78009360D168A069636921F0FF0103430B43C3
:100F8800D360136843F0010313600020202320641A
:100F980084F83D30206384F83E0070BD1B4B9842B6
:100FA80095D92268184E5368B0FBF6F623F03F0334
:100FB80033435360136A4FF49671714323F03F0330
:100FC8004FF47A76B1FBF6F1A9E7A36853B905EBBC
:100FD8004503B0FBF3F0431CC3F30B036BB143F4BD
:100FE8000043B2E719236B43B0FBF3F0431CC3F390
:100FF8000B0313B143F44043A7E70123A5E700BF60
:10100800A08601007F841E0040420F00FF083D00BB
:101018002DE9FF4104461F460D469046FFF7A2FA08
:1010280094F83D30202B064604D00225284604B00B
:10103800BDE8F08100901923012258492046FFF7A6
:10104800EAFE0028F1D194F83C30012BEDD00123C1
:1010580084F83C3023681A68D2075EBF1A6842F0E9
:1010680001021A601A6822F400621A60212284F8C8
:101078003D20102284F83E20002222646785628D7C
:101088002285474AE262E26AC4F82480082A04D02A
:10109800012A02D012F5803F04D11A6842F4807206
:1010A8001A6002E0226B122AF7D000960A9B0022EF
:1010B8004FF001112046FFF7AEFE08B10125B5E754
:1010C80023692268B3F5804F13D105F0FE05156139
:1010D80033460A9A33492046FFF703FE054600289F
:1010E800ECD1236803905A6903929B690393039B8D
:1010F80044E0EB1103F0060343F0F00313612A49BF
:101108000A9A33462046FFF7ECFD0028D6D123681B
:10111800EDB21D61DCE732460A992046FFF7ADFEC5
:1011280040B1236C042B01BF2268136843F4007399
:101138001360C3E7636A20681A4612F8011B01614D
:101148006262628D013A92B26285228D4769511EB0
:1011580089B27F0721850AD549B1597801610233DF
:101168006362638D013B9BB2023A638522853246F6
:101178000A992046FFF7FAFD0028D2D1238D002BCB
:10118800C9D121680A6842F400720A60202284F8F2
:101198003D2084F83C3084F83E3047E702001000D8
:1011A8000000FFFF02000100080001002DE9F043E4
:1011B800044689B098460F469146109EFFF7D2F92B
:1011C80094F83D30202B054604D00227384609B054
:1011D800BDE8F083009019230122A6492046FFF7B5
:1011E8001AFE0028F1D194F83C30012BEDD00123F0
:1011F80084F83C3023681A68D0075EBF1A6842F04A
:1012080001021A601A6822F400621A60222284F825
:101218003D20102284F83E2000222264A4F82A806F
:10122800628D2285944AE262E26A1968C4F82490C1
:1012380041F48061082A196004D0012A02D012F50D
:10124800803F04D11A6842F480721A6002E0226B6F
:10125800112AF7D00095334600224FF0011120469D
:10126800FFF7D9FD08B10127B0E72369B3F5804F2F
:10127800236840D147F00107FFB21F612B46324671
:101288007E492046FFF72DFD07460028EBD1228D29
:101298002368002A63D0012A74D11A6822F4806274
:1012A8001A6004975A6904929A690492049A1A680F
:1012B80042F400721A60DFF8CC81238D002B58D0DD
:1012C800032B00F2BA80012B77D12A4631462046FB
:1012D800FFF772FD0028C6D12268636A12691A7086
:1012E800636A01336362238D013B2385638D013B70
:1012F8009BB26385E1E74FEAE71808F0060848F073
:10130800F0021A615E492B4632462046FFF7E9FC97
:101318000028A8D123685949FFB21F6132462B46DD
:101328002046FFF7DEFC024600289CD12368079080
:1013380059690791996907910799196841F480716A
:1013480019602046009533464FF00111FFF763FD01
:10135800002888D1226848F0F10313618EE70397CB
:101368005A6903929A690392039A1A6842F40072BE
:101378001A60202384F83D30002384F83E3084F836
:101388003C3023E7022A1A680DD122F480621A60E1
:101398001A6842F400621A6005975A6905929B69B7
:1013A8000593059B87E742F480621A6006975A699D
:1013B80006929B690693069B7DE7022B00953346B0
:1013C8004FF00002414620461AD1FFF724FD0028BD
:1013D8007FF449AF23681A6842F400721A60626A9F
:1013E8001B691370626A531C6362238D013B23855A
:1013F800638D013B9BB2638523681B6953706FE75C
:10140800FFF709FD024600287FF42DAF236819680D
:1014180021F480611960616A1B690B70636A009529
:1014280001336362238D013B2385638D013B9BB2AE
:101438006385414633462046C7E72A46314620465B
:10144800FFF7BAFC00287FF40EAF2268636A1269BE
:101458001A70626A531C6362238D013B2385638D76
:10146800013B9BB263852368596949077FF525AF1E
:10147800C3E700BF020010000000FFFF02000100E8
:101488000800010004000100F8B50446002841D016
:1014980090F8413003F0FF022BB9424B80F840200E
:1014A800436301F019FA0221226884F84110D369D4
:1014B80023F47B6323F00F03D361636911628B42CA
:1014C80031D0E368002BA3680CBF1025202501202C
:1014D800202B98BF6D0000F03BFD23696169B3F5CF
:1014E800007F1BD1E3680A22B3B1AB00B0FBF3F372
:1014F80053430A22B3FBF1F30533B3FBF2F303F0D2
:10150800010212025B08991EFD290ED9636C43F093
:10151800100363640120F8BDEB00E7E70A23B0FB82
:10152800F5F04343E5E70022EDE71343226921681C
:101538006668E568A069DFF87CE013430B62A3687E
:10154800CF6946EA030242F400622A43024307EAEB
:101558000E073A43CA61226A012A1DD1124A626300
:10156800124F134AB94218BF4FF040222B43D1699A
:1015780001EA0E01D16102211162D76943F40063C7
:10158800034336F4007143EA07030CBF4FF480713C
:1015980000219BB20B43D36100200123606484F8CF
:1015A8004130F8BD3B1600083917000800380040E4
:1015B8000034004040F0FFFF10B5002933D0002A66
:1015C80031D090F84030012B0AD0012380F8403008
:1015D80090F84130012B4FF0000303D080F84030E1
:1015E800022010BD032480F841404364036841622F
:1015F800D96901F00701A14201D0052901D15200A2
:1016080092B2028542855A6842F0A0025A60DA69AD
:1016180052055EBFDA6942F48062DA61002380F81D
:101628004030184610BD012010BD436B1847704765
:1016380070471FB503689A68019290F84120042A00
:10164800044636D1019AD10717D55A68520614D5DF
:10165800C26AD96822F8021BC262428E013A92B26B
:101668004286428E92B242B95A6822F060025A60AB
:10167800012380F84130FFF7DAFF019B590618D59E
:1016880023685A68920614D55A6822F060025A6094
:1016980000220292DA6802929B680293029B01235D
:1016A80084F84130636C43F0020363642046FFF71B
:1016B800BFFF94F84130032B36D1019B9B0719D506
:1016C80022685368180615D5636A33F8021BD1607F
:1016D8006362638D013B9BB26385638D9BB24BB99B
:1016E800536823F0A0035360012384F84130204657
:1016F80000F0AAFE019B190716D523685A689206BE
:1017080012D55A6822F0A0025A60002203929B6800
:101718000393039B012384F84130636C43F0040373
:1017280063642046FFF784FF04B010BD70470000D3
:1017380010B502688B49936886B0044600938A4BBB
:101748008A4218BF4FF0402399680191516802916D
:1017580059680391416831F4007140F09080009B12
:1017680099071AD5029B1B0617D5436A991C1B8833
:101778004162D360438D013B9BB24385438D9BB24D
:101788005BB9536823F0A0035360438E9BB223B91F
:10179800012380F84130FFF7C9FF019BD80722D504
:1017A800039B59061FD5E26A20686E49931CE362C1
:1017B8006D4B884218BF4FF04023D9681180628E64
:1017C800013A92B26286628E92B262B95A6822F087
:1017D80060025A60638D9BB22BB9012384F84130B3
:1017E8002046FFF7A3FF019B5A0622D5039B9B06C1
:1017F8001FD523685B495C4A8B4218BF4FF04022D3
:101808002046516821F0600151605A6822F0A00218
:101818005A6000220492DA6804929B680493049B3D
:10182800012384F84130636C43F002036364FFF7DB
:10183800FFFE009B180720D5029B99061DD523683B
:1018480048495A6822F0A0025A60474A8B4218BF9A
:101858004FF04022516821F060015160002205924A
:101868009B680593059B012384F84130636C43F022
:10187800040363642046FFF7DBFE06B010BD019A3F
:1018880092071AD5039A110617D5426A911C128835
:101898004162DA60428D013A92B24285428D92B23B
:1018A8005AB95A6822F0A0025A60438E9BB223B9F3
:1018B800012380F84130FFF739FF009BDA071CD578
:1018C800029B5B0619D5E36A9A1CE2622268D1681A
:1018D8001980638E013B9BB26386638E9BB263B9AA
:1018E800536823F060035360638D9BB22BB90123C7
:1018F80084F841302046FFF719FF009B58061BD596
:10190800029B990618D522681649536823F060038C
:101918005360154B8A4218BF4FF0402320465A683F
:1019280022F0A0025A60012384F84130636C43F02E
:1019380002036364FFF77CFE019B1A079DD5039B96
:101948009B069AD522680749074B8A4218BF4FF071
:101958004023596821F0A0015960536823F06003BF
:10196800536080E700380040003400402DE9F3411F
:10197800044618B9012002B0BDE8F0810368DD070C
:1019880010D42368980758D423681A0700F19A805E
:1019980023685B0700F1B880A269002A40F019812A
:1019A8000020E8E7A64B9A6802F00C02042A07D048
:1019B8009A6802F00C02082A0AD15B68590207D516
:1019C8009F4B1B689A03DCD56368002BD9D1D1E7FC
:1019D80063689B4DB3F5803F11D12B6843F4803386
:1019E8002B60FEF7BFFD964D06462B689B03C8D4B7
:1019F800FEF7B8FD801B6428F7D90320BBE7B3F5D1
:101A0800A02F04D12B6843F480232B60E5E72A68D4
:101A180022F480322A602A6822F480222A60002B6D
:101A2800DFD1FEF79FFD06462B689F03A9D5FEF779
:101A380099FD801B6428F7D9DFE7814B9A6812F07B
:101A48000C0F07D09A6802F00C02082A11D15B68C3
:101A58005E020ED47A4B1A68950702D5E268012A0D
:101A680088D11A68216922F0F80242EAC1021A6094
:101A78008AE7E268734BB2B101221A60FEF772FD81
:101A88006F4D06462B68980707D52B68226923F007
:101A9800F80343EAC2032B6076E7FEF763FD801B79
:101AA8000228EFD9A9E71A60FEF75CFD644D0646E7
:101AB8002B6899077FF568AFFEF754FD801B022855
:101AC800F6D99AE76269604B7AB101221A60FEF78B
:101AD80049FD5B4D06466B6F9F073FF559AFFEF713
:101AE80041FD801B0228F6D987E71A60FEF73AFD08
:101AF800534D06466B6F98077FF54AAFFEF732FDE8
:101B0800801B0228F6D978E74D4B1A6C12F08052E8
:101B180028D101921A6C42F080521A641B6C03F0AF
:101B280080530193019B0126484D2B68D9051BD58D
:101B3800A368434D012B27D12B6F43F001032B677B
:101B4800FEF710FD3E4D074641F288382B6F9B0784
:101B580039D5002E3FF420AF394A136C23F0805357
:101B6800136419E70026DFE72B6843F480732B60C2
:101B7800FEF7F8FC07462B68DA05D9D4FEF7F2FC25
:101B8800C01B0228F7D938E7052B04D12B6F43F087
:101B980004032B67D0E72A6F22F001022A672A6F15
:101BA80022F004022A67002BCAD1FEF7DBFC41F2BF
:101BB800883807462B6F9807CBD5FEF7D3FCC01B98
:101BC8004045F7D919E7FEF7CDFCC01B4045BDD904
:101BD80013E71B4DAB6803F00C03082B3FF4CAAEA8
:101BE8001B4E0023022A336034D1FEF7BBFC0746A4
:101BF8002B6899011ED4226AE3691343626A43EA97
:101C08008213E26A43EA0263A26A0D4C5208013A5F
:101C180043EA02436B6001233360FEF7A3FC0546E9
:101C280023689A013FF5BCAEFEF79CFC401B0228D6
:101C3800F6D9E2E6FEF796FCC01B0228D8D9DCE606
:101C48000038024000004742800E474200700040C2
:101C580060004742FEF786FC04462B689B017FF52F
:101C68009FAEFEF77FFC001B0228F6D9C5E600BF31
:101C7800134908B58B6803F00C03042B03D0082B19
:101C880003D0104808BD104808BD4A684B68496829
:101C980013F4800314BF0C480A48C1F3881118BF15
:101CA800002302F03F02A1FB0001FEF789FA044B72
:101CB8005B68C3F3014301335B00B0FBF3F008BD7D
:101CC800003802400024F40000127A002DE9F041A7
:101CD8000D46044610B90120BDE8F081444B1A684E
:101CE80002F00F028A4228D321688F072DD4C80733
:101CF80040D43F4B1A6802F00F02954266D322681F
:101D080051076CD4130707D53A4A2169936823F41D
:101D1800604343EAC1039360FFF7AAFF354B364A95
:101D28009B68C3F30313D35CD840344B186000207E
:101D3800FEF7CEFB0020BDE8F081CAB21A701B681E
:101D480003F00F039942C6D1CEE72A4B11F0040FD6
:101D58001EBF9A6842F4E0529A600E0742BF9A6822
:101D680042F460429A609A68A06822F0F002024346
:101D78009A60BCE762681F4B012A1DD11B6813F4E7
:101D8800003FA8D01B4EB36823F003031343B3608E
:101D9800FEF7E8FB41F288380746B368626803F04B
:101DA8000C03B3EB820FA4D0FEF7DCFBC01B40454D
:101DB800F3D90320BDE8F081911E01291B6802D8E0
:101DC80013F0007FDDE713F0020FDAE7EAB21A70CA
:101DD8001B6803F00F039D427FF47DAF8FE7054931
:101DE800E0688B6823F4E05303438B608AE700BF05
:101DF800003C024000380240E42A00080C000020A1
:101E0800044B054A9B68C3F38223D35C034A1068DA
:101E1800D840704700380240F42A00080C0000201F
:101E2800036813F0050FF7B5054605D1286810F0CB
:101E3800020028D103B0F0BD414C424E002323607C
:101E4800FEF790FB074633681B0115D4AB686A6838
:101E58001B0743EA8213C6F8843001232360FEF788
:101E680081FB384C064623681801DFD4FEF77AFB5D
:101E7800801B0228F7D904E0FEF774FBC01B022878
:101E8800E1D90320D6E7002301932E4B2E4C1A6C80
:101E980042F080521A641B6C03F080530193019B3B
:101EA800236843F480732360FEF75CFB06462368CF
:101EB800D9051BD5234C236F13F440731CD1EB6851
:101EC80003F44072B2F5407F1E4A34D1916823F082
:101ED800704021F4F81120F4407001439160116FB3
:101EE800C3F30B030B4313670020A3E7FEF73AFB8A
:101EF800801B0228DBD9C4E7EA6802F440729342E7
:101F0800DDD0236F114A0121116023F440730021B1
:101F180011602367236FDA07D1D5FEF723FB41F25F
:101F280088370646236F9B07C9D4FEF71BFB801B27
:101F3800B842F7D9A5E7916821F4F811CEE700BFB8
:101F4800680047420038024000700040400E474297
:101F5800012820D1114B9A6812F4000204D0012AFA
:101F68000F4818BF002070475A680C495868530238
:101F7800D1F884204CBF0B4B0B4B00F03F00B3FB58
:101F8800F0F3D1F88400C2F388125343C0F302700F
:101F9800B3FBF0F070470020704700BF00380240E4
:101FA8000080BB0000127A000024F400022380F8AD
:101FB8003D3003689A6802F00702062A1EBF1A68B5
:101FC80042F001021A60012380F83D30002070477A
:101FD800304A0368904212D0B0F1804F0FD0A2F57A
:101FE8007C4290420BD002F58062904207D002F505
:101FF8008062904203D002F57842904219D14A6833
:1020080023F070031343234A904229D0B0F1804F44
:1020180026D0A2F57C42904222D002F580629042FE
:102028001ED002F5806290421AD002F578429042A2
:1020380016D0194A904213D002F5806290420FD010
:1020480002F5806290420BD0A2F59832904207D0F8
:1020580002F58062904203D002F58062904203D17B
:10206800CA6823F4407313434A6923F08003134377
:1020780003608B68C3620B688362064B984203D087
:1020880003F58063984201D10B690363012343611F
:10209800704700BF000001400040014010B50446F1
:1020A800A0B190F83D3003F0FF021BB980F83C2046
:1020B80000F066FC022384F83D302068211DFFF7FC
:1020C80087FF012384F83D30002010BD012010BD9A
:1020D80010B584680A4324F47F4442EA0323234367
:1020E800836010BD90F83C30012B70B504464FF06A
:1020F800020019D084F83D002068012384F83C30A0
:10210800836823F47F4323F0770383600B68402BB5
:1021180065D015D8102B0CD007D853B10123002057
:1021280084F83D3084F83C0070BD202B01D0302B62
:10213800F4D1826843F0070322F0700213431AE0D7
:10214800602B34D019D8502BE8D14A68CE68016A80
:10215800056A25F001050562836921F00A0123F06B
:10216800F00343EA06130A4383610262836823F09B
:10217800700343F057038360D0E7702B0CD0B3F59E
:10218800005FCBD1CB684A688968FFF7A1FF226856
:10219800936843F4804308E0CB684A688968FFF78E
:1021A80097FF2268936843F077039360B6E74D681A
:1021B800CE68016A21F0100101628269036A22F483
:1021C800704223F0A00343EA051342EA0632826113
:1021D8000362836823F0700343F06703CBE74A6820
:1021E800CE68016A056A25F001050562836921F058
:1021F8000A0123F0F00343EA06130A4383610262EB
:10220800836823F0700343F04703B4E790F83C3049
:10221800012B30B54FF0020314D0046880F83D302C
:102228006268A3680D68496822F0700223F0800391
:102238000B432A436260A360012380F83D300023EA
:1022480080F83C30184630BD07B58DF804008DF88D
:10225800051001A8114600F08DFA03B05DF804FBE3
:1022680037B500F0A3FA02221046012102ACFFF7AD
:10227800EBFF0222AF210420FFF7E6FF02228021B4
:102288000520FFF7E1FF14F8031D062001228DF851
:102298000400FFF7D9FF204600F07AFA9DF80510F0
:1022A8009DF8040001F0200141F0070102228DF899
:1022B8000510FFF7C9FF9DF805100E2001228DF8C3
:1022C8000400FFF7C1FF204600F062FA9DF80510F0
:1022D8009DF8040001F0370141F0300102228DF829
:1022E8000510FFF7B1FF022200210F20FFF7ACFF16
:1022F800022200211A20FFF7A7FF022200211B203B
:10230800FFF7A2FF022299210020FFF79DFF322547
:10231800022280214720FFF797FF9DF805108DF8CE
:10232800045001222846FFF78FFF204600F030FABC
:102338009DF805109DF8040041F0800102228DF8F7
:102348000510FFF781FF9DF805108DF80450012254
:102358002846FFF779FF204600F01AFA9DF8051085
:102368009DF8040001F07F0102228DF80510FFF7A7
:102378006BFF002108460222FFF766FF02229E211A
:102388001046FFF761FF03B030BD00F0EBB9000065
:1023980070B5302298B00DEB0200002100F08AFBE6
:1023A8001422002107A800F085FB0021102203A8B1
:1023B80000F080FB0024224B01941A6C42F08052FA
:1023C8001A641B6C03F080530193019B1D4B02940C
:1023D8001A6842F480421A601B6803F4804302932F
:1023E800029B4FF480330D934FF48003139308231B
:1023F80014934FF4A8730225012615930CA80723FC
:1024080017930C9612951695FFF7B0FA0F230793BA
:102418004FF4A0530A9305214FF4805307A80B9358
:1024280008950994FFF752FC4FF48173049303A8AD
:10243800032303960593FFF7F3FC18B070BD00BFA4
:102448000038024000700040014B01221A707047AA
:102458000A0000200C4A0D491368098810B520F8B5
:10246800131000EB43000233B32B4180136009D9EA
:10247800074B08491C7808780C7007491870002326
:102488000B70136010BD00BF3C000020F00300205B
:1024980038000020080000200900002010B5094C71
:1024A800227822B9084B09481860FFF7D3FF237830
:1024B800012B06D1044B06481860BDE81040FFF711
:1024C800C9BF10BD3800002034000020980000204B
:1024D80048020020014B01221A7070472C0000208E
:1024E800044B1B7823B1012B034818BF0020704709
:1024F8000248704708000020480200209800002089
:102508000023054805491A4620F8132021F813200E
:102518000133B42BF8D170479800002048020020FE
:1025280080B58CB0FDF7F8FFFFF732FF14220021C9
:1025380007A8002400F0BEFA774B00941A6B77487E
:10254800774DDFF81C8242F080021A631A6B02F0A2
:1025580080020092009A01941A6B42F001021A63F9
:102568001A6B02F001020192019A02941A6B42F06E
:1025780008021A631A6B02F008020292029A039484
:102588001A6B42F004021A631A6B02F004020392F7
:10259800039A04941A6B42F002021A631B6B03F04D
:1025A8000203224604930421049BFEF77BFB224688
:1025B8004FF210015B48FEF775FB012607A9574843
:1025C800079608940994FEF78DFA042307A953483F
:1025D8000793089609940A94FEF784FA07A94FF21C
:1025E800100350480793089609940A94FEF77AFA5C
:1025F8004D484E4A4E4B846080E80C004FF48043AF
:10260800C460036144618461C4610462FEF75CFCD8
:102618004848494B03604FF40073436003614BF62D
:10262800803343618460C4608461C4610462FEF7DE
:102638002BFF1022214607A800F03CFA3F48AC6067
:102648004FF4803385E809004FF08053EB62284649
:102658004FF0C063AB622C612C7685F82040EC60AB
:10266800EE6185F830406E61FDF782FF07A92846C4
:10267800079608960994324EFEF732F91022214641
:1026880007A800F017FAAF274FF0804386E88800C4
:1026980030460923B460F3603461B461059406944C
:1026A800FFF7FCFC4FF4805307A930460793FFF768
:1026B80019FD05A9202306943046224C0593FFF7FF
:1026C800A5FD214B2360214B214A1A60FFF7C8FD65
:1026D800FFF716FF3046FFF769FC2846FDF7EEFFC7
:1026E8001C4F26461C4C98F80000FFF7F9FE23788B
:1026F80030603BB13D782DB90223B4213B70FFF720
:1027080044FE2570154B1A78002AECD000221A7066
:10271800FFF7C4FEE6E700BF0038024000000240B1
:1027280000020020000C0240440000200054004039
:10273800A0860100F4030020003C00400020014076
:10274800B0030020300000204802002034000020A0
:1027580098000020090000200A0000202C0000201A
:10276800080000200A4601460148FEF725BF00BFC1
:10277800F403002007B56423009302460B46034880
:102788009421FEF745FC03B05DF804FB44000020EB
:1027980007B5642300930246012394210248FEF7FB
:1027A80005FD03B05DF804FB440000200122102160
:1027B8000148FEF777BA00BF000C024082B00C4B0C
:1027C800002100915A6C42F480425A645A6C02F417
:1027D80080420092009A01911A6C42F080521A6469
:1027E8001B6C03F080530193019B02B0704700BF3C
:1027F8000038024010B5044688B01422002103A80E
:1028080000F058F92268164B9A4226D103F58C330A
:10281800002401945A6C134842F480725A645A6C2A
:1028280002F480720192019A02941A6B42F001023A
:102838001A631B6B03F001030293029B02230393A9
:1028480003A903230493FEF74DF9122022462146DB
:10285800FEF7F0F81220FEF721F908B010BD00BF0E
:10286800002001400000024030B5044689B014221F
:10287800002103A800F01EF92268144B9A4222D1C5
:10288800134C144800250195236B43F0020323637E
:10289800236B03F002030193019B4FF4107303931E
:1028A800122304930123059303A904230793FEF736
:1028B80019F90295236C43F400132364236C03F481
:1028C80000130293029B09B030BD00BF00540040C2
:1028D8000038024000040240F0B5044689B01422D2
:1028E800002103A800F0E6F82268224B9A423FD163
:1028F80003F5FE33002400941A6C1F4842F400428A
:102908001A641A6C02F400420092009A01941A6B3D
:1029180042F001021A631A6B02F001020192019A55
:1029280002941A6B42F004021A631B6B03F004034F
:102938000293029B022710230126062503A903936D
:10294800049706960795FEF7CDF84FF4A45303A90C
:102958000A4803930497059406960795FEF7C2F86C
:10296800332022462146FEF765F83320FEF796F815
:1029780009B0F0BD003C00400000024000080240E1
:102988000368B3F1804F82B00BD100230193064B4B
:102998001A6C42F001021A641B6C03F001030193E4
:1029A800019B02B0704700BF003802407047704773
:1029B800FDF7CCBD0148FDF7FFBE00BF00020020B7
:1029C8000148FEF732BE00BFF40300200F49D1F8DA
:1029D800883043F47003C1F888300D4B1A68002022
:1029E80042F001021A6098601A6822F0847222F498
:1029F80080321A60074A5A601A6822F480221A60E4
:102A0800D8604FF000638B60704700BF00ED00E0B6
:102A18000038024010300024DFF834D0002103E0F1
:102A28000C4B5B58435004310B480C4B42189A42EC
:102A3800F6D30B4A02E0002342F8043B094B9A42C2
:102A4800F9D3FFF7C3FF00F011F8FFF769FD7047EE
:102A5800000002200C2B00080000002010000020BD
:102A6800100000203C040020FEE7000070B50D4E69
:102A78000D4CA41BA4100025A54209D10B4E0C4CEB
:102A880000F020F8A41BA4100025A54205D170BDB4
:102A980056F8253098470135EEE756F8253098471F
:102AA8000135F2E7042B0008042B0008042B00086A
:102AB800082B000802440346934200D1704703F8EC
:102AC800011BF9E7F8B500BFF8BC08BC9E46704783
:0C2AD800F8B500BFF8BC08BC9E46704773
:102AE40000000000000000000102030406070809BA
:082AF4000000000001020304D0
:082AFC00FCD6FF7F0100000081
:042B0400AD01000817
:042B08008901000837
:102B0C000100000010000000010201000024F4008C
:0400000508002A21A4
:00000001FF
