:020000040800F2
:100000000000022009380008593800085938000853
:100010005938000859380008593800080000000015
:100020000000000000000000000000001937000878
:1000300059380008000000001B3700081D37000871
:10004000593800085938000859380008593800084C
:10005000593800085938000859380008593800083C
:10006000593800085938000859380008593800082C
:10007000593800085938000859380008593800081C
:100080005938000859380008213700085938000845
:1000900059380008593800085938000859380008FC
:1000A00059380008593800085938000859380008EC
:1000B00059380008593800085938000859380008DC
:1000C00059380008593800085938000859380008CC
:1000D00059380008593800085938000859380008BC
:1000E00059380008593800085938000859380008AC
:1000F000593800085938000859380008593800089C
:100100005938000859380008593800082D370008B8
:10011000593800085938000859380008593800087B
:10012000593800085938000859380008593800086B
:10013000593800085938000859380008593800085B
:10014000593800085938000859380008593800084B
:10015000593800085938000859380008593800083B
:10016000593800085938000859380008593800082B
:1001700059380008593800085938000800000000B4
:08018000593800085938000845
:1001900010B5054C237833B9044B13B10448AFF3C1
:1001A00000800123237010BD8000002000000000AB
:1001B000E059000808B5034B1BB103490348AFF3EE
:1001C000008008BD0000000084000020E059000805
:1001D00001F0FF01102A2BDB10F0070F08D010F8F8
:1001E000013B013A8B422DD010F0070F42B3F6D1FC
:1001F000F0B441EA012141EA014122F007047FF015
:1002000000070023F0E80256083C85EA010586EA6B
:10021000010685FA47F5A3FA87F586FA47F6A5FAA7
:1002200087F68EB9EED1F0BC01F0FF0102F00702B3
:1002300032B110F8013B013A83EA010313B1F8D15E
:100240000020704701387047002D06BF354603383F
:10025000073815F0010F07D1013015F4807F02BF78
:10026000013015F4C03F0130F0BC0138704700BFC9
:1002700081F0004102E000BF83F0004330B54FEA57
:1002800041044FEA430594EA050F08BF90EA020FC4
:100290001FBF54EA000C55EA020C7FEA645C7FEA57
:1002A000655C00F0E2804FEA5454D4EB5555B8BF7A
:1002B0006D420CDD2C4480EA020281EA030382EAEB
:1002C000000083EA010180EA020281EA0303362D7D
:1002D00088BF30BD11F0004F4FEA01314FF4801C50
:1002E0004CEA113102D0404261EB410113F0004F62
:1002F0004FEA03334CEA133302D0524263EB430319
:1003000094EA050F00F0A780A4F10104D5F1200EB6
:100310000DDB02FA0EFC22FA05F2801841F1000111
:1003200003FA0EF2801843FA05F359410EE0A5F1E5
:1003300020050EF1200E012A03FA0EFC28BF4CF016
:10034000020C43FA05F3C01851EBE37101F00045CC
:1003500007D54FF0000EDCF1000C7EEB00006EEBD9
:100360000101B1F5801F1BD3B1F5001F0CD3490863
:100370005FEA30004FEA3C0C04F101044FEA4452BA
:1003800012F5800F80F09A80BCF1004F08BF5FEA41
:10039000500C50F1000041EB045141EA050130BD21
:1003A0005FEA4C0C404141EB0101013C28BFB1F533
:1003B000801FE9D291F0000F04BF01460020B1FA7E
:1003C00081F308BF2033A3F10B03B3F120020CDA51
:1003D0000C3208DD02F1140CC2F10C0201FA0CF02F
:1003E00021FA02F10CE002F11402D8BFC2F1200C94
:1003F00001FA02F120FA0CFCDCBF41EA0C0190404A
:10040000E41AA2BF01EB0451294330BD6FEA040492
:100410001F3C1CDA0C340EDC04F11404C4F120027D
:1004200020FA04F001FA02F340EA030021FA04F38F
:1004300045EA030130BDC4F10C04C4F1200220FAE6
:1004400002F001FA04F340EA0300294630BD21FA24
:1004500004F0294630BD94F0000F83F4801306BFEA
:1004600081F480110134013D4EE77FEA645C18BFDE
:100470007FEA655C29D094EA050F08BF90EA020F75
:1004800005D054EA000C04BF1946104630BD91EA6D
:10049000030F1EBF0021002030BD5FEA545C05D170
:1004A0004000494128BF41F0004130BD14F58004AF
:1004B0003CBF01F5801130BD01F0004545F0FE4123
:1004C00041F470014FF0000030BD7FEA645C1ABF58
:1004D000194610467FEA655C1CBF0B46024650EA8F
:1004E000013406BF52EA033591EA030F41F40021BB
:1004F00030BD00BF90F0000F04BF0021704730B541
:100500004FF4806404F132044FF000054FF0000115
:1005100050E700BF90F0000F04BF0021704730B5D6
:100520004FF4806404F1320410F0004548BF4042AB
:100530004FF000013EE700BF42004FEAE2014FEA00
:1005400031014FEA02701FBF12F07F4393F07F4FDB
:1005500081F06051704732F07F4208BF704793F0DE
:100560007F4F04BF41F40021704730B54FF46074F1
:1005700001F0004521F000411CE700BF50EA0102F4
:1005800008BF704730B54FF000050AE050EA01029D
:1005900008BF704730B511F0004502D5404261EB0D
:1005A00041014FF4806404F132045FEA915C3FF44E
:1005B000D8AE4FF003025FEADC0C18BF03325FEAEB
:1005C000DC0C18BF033202EBDC02C2F1200300FA9C
:1005D00003FC20FA02F001FA03FE40EA0E0021FAC1
:1005E00002F11444BDE600BF70B54FF0FF0C4CF4AF
:1005F000E06C1CEA11541DBF1CEA135594EA0C0F61
:1006000095EA0C0F00F0DEF82C4481EA030621EA9B
:100610004C5123EA4C5350EA013518BF52EA0335D6
:1006200041F4801143F4801338D0A0FB02CE4FF088
:100630000005E1FB02E506F00042E0FB03E54FF0B8
:100640000006E1FB03569CF0000F18BF4EF0010EB0
:10065000A4F1FF04B6F5007F64F5407404D25FEAAC
:100660004E0E6D4146EB060642EAC62141EA55515F
:100670004FEAC52040EA5E504FEACE2EB4F1FD0CA1
:1006800088BFBCF5E06F1ED8BEF1004F08BF5FEA1F
:10069000500E50F1000041EB045170BD06F00046D1
:1006A00046EA010140EA020081EA0301B4EB5C047E
:1006B000C2BFD4EB0C0541EA045170BD41F4801176
:1006C0004FF0000E013C00F3AB8014F1360FDEBF9B
:1006D000002001F0004170BDC4F10004203C35DA77
:1006E0000C341BDC04F11404C4F1200500FA05F3FA
:1006F00020FA04F001FA05F240EA020001F000429B
:1007000021F0004110EBD37021FA04F642EB060110
:100710005EEA430E08BF20EAD37070BDC4F10C043A
:10072000C4F1200500FA04F320FA05F001FA04F2FE
:1007300040EA020001F0004110EBD37041F10001EA
:100740005EEA430E08BF20EAD37070BDC4F12005F5
:1007500000FA05F24EEA020E20FA04F301FA05F25D
:1007600043EA020321FA04F001F0004121FA04F205
:1007700020EA020000EBD3705EEA430E08BF20EAD5
:10078000D37070BD94F0000F0FD101F0004640000F
:1007900041EB010111F4801F08BF013CF7D041EA91
:1007A000060195F0000F18BF704703F00046520095
:1007B00043EB030313F4801F08BF013DF7D043EA66
:1007C0000603704794EA0C0F0CEA135518BF95EA1C
:1007D0000C0F0CD050EA410618BF52EA4306D1D1A3
:1007E00081EA030101F000414FF0000070BD50EAC2
:1007F000410606BF1046194652EA430619D094EA4C
:100800000C0F02D150EA013613D195EA0C0F05D135
:1008100052EA03361CBF104619460AD181EA030189
:1008200001F0004141F0FE4141F470014FF0000041
:1008300070BD41F0FE4141F4780170BD70B54FF0DC
:10084000FF0C4CF4E06C1CEA11541DBF1CEA13555C
:1008500094EA0C0F95EA0C0F00F0A7F8A4EB05043E
:1008600081EA030E52EA03354FEA013100F0888035
:100870004FEA03334FF0805545EA131343EA1263FE
:100880004FEA022245EA111545EA10654FEA0026B3
:100890000EF000419D4208BF964244F1FD0404F56C
:1008A000407402D25B084FEA3202B61A65EB0305C8
:1008B0005B084FEA32024FF480104FF4002CB6EB85
:1008C000020E75EB030E22BFB61A754640EA0C0005
:1008D0005B084FEA3202B6EB020E75EB030E22BF45
:1008E000B61A754640EA5C005B084FEA3202B6EB86
:1008F000020E75EB030E22BFB61A754640EA9C0045
:100900005B084FEA3202B6EB020E75EB030E22BF14
:10091000B61A754640EADC0055EA060E18D04FEAD2
:10092000051545EA16754FEA06164FEAC30343EA72
:1009300052734FEAC2025FEA1C1CC0D111F4801F3F
:100940000BD141EA00014FF000004FF0004CB6E738
:1009500011F4801F04BF01430020B4F1FD0C88BFD7
:10096000BCF5E06F3FF6AFAEB5EB030C04BFB6EBE2
:10097000020C5FEA500C50F1000041EB045170BDD5
:100980000EF0004E4EEA113114EB5C04C2BFD4EB02
:100990000C0541EA045170BD41F480114FF0000E86
:1009A000013C90E645EA060E8DE60CEA135594EA02
:1009B0000C0F08BF95EA0C0F3FF43BAF94EA0C0F05
:1009C0000AD150EA01347FF434AF95EA0C0F7FF47A
:1009D00025AF104619462CE795EA0C0F06D152EACE
:1009E00003353FF4FDAE1046194622E750EA4106B2
:1009F00018BF52EA43067FF4C5AE50EA41047FF4C3
:100A00000DAF52EA43057FF4EBAE12E74FF0FF3C27
:100A100006E000BF4FF0010C02E000BF4FF0010CF8
:100A20004DF804CD4FEA410C7FEA6C5C4FEA430C71
:100A300018BF7FEA6C5C1BD001B050EA410C0CBFC0
:100A400052EA430C91EA030F02BF90EA020F002022
:100A5000704710F1000F91EA030F58BF994208BF89
:100A600090422CBFD8176FEAE37040F00100704746
:100A70004FEA410C7FEA6C5C02D150EA013C07D19D
:100A80004FEA430C7FEA6C5CD6D152EA033CD3D0E8
:100A90005DF8040B704700BF8446104662468C46E2
:100AA0001946634600E000BF01B5FFF7B7FF002815
:100AB00048BF10F1000F01BD4DF808EDFFF7F4FF3E
:100AC0000CBF012000205DF808FB00BF4DF808EDC9
:100AD000FFF7EAFF34BF012000205DF808FB00BFEC
:100AE0004DF808EDFFF7E0FF94BF012000205DF80E
:100AF00008FB00BF4DF808EDFFF7CEFF94BF0120C3
:100B000000205DF808FB00BF4DF808EDFFF7C4FFBB
:100B100034BF012000205DF808FB00BF4FEA410C04
:100B20007FEA6C5C02D150EA013C0AD14FEA430CE7
:100B30007FEA6C5C02D152EA033C02D14FF0000024
:100B400070474FF0010070474FEA410212F5001262
:100B500015D211D56FF47873B3EB625212D94FEA04
:100B6000C12343F0004343EA505311F0004F23FAEE
:100B700002F018BF404270474FF00000704750EA43
:100B8000013005D111F0004008BF6FF00040704700
:100B90004FF00000704700BF4FEA4102B2F1E0435E
:100BA00024BFB3F5001CDCF1FE5C0DD901F0004C54
:100BB0004FEAC0024CEA5070B2F1004F40EB8300A4
:100BC00008BF20F00100704711F0804F21D113F1D0
:100BD0003872BCBF01F00040704741F480114FEA09
:100BE0005252C2F11802C2F1200C10FA0CF320FA92
:100BF00002F018BF40F001004FEAC1234FEAD323AF
:100C000003FA0CFC40EA0C0023FA02F34FEA430318
:100C1000CCE77FEA625307D150EA01331EBF4FF0A1
:100C2000FE4040F44000704701F0004040F0FE40BC
:100C300040F40000704700BF53B94AB9002908BF0B
:100C400000281CBF4FF0FF314FF0FF3000F070B9AB
:100C5000ADF1080C6DE904CE00F006F8DDF804E013
:100C6000DDE9022304B070472DE9F047089E0D46E8
:100C700004460F46002B4AD18A42944665D9B2FAFF
:100C800082F343B102FA03FCC3F120029F4020FA31
:100C900002F217439C404FEA1C4E1FFA8CF5B7FB3B
:100CA000FEF1220C0EFB117742EA074201FB05F030
:100CB00090420AD91CEB020201F1FF3780F01C813F
:100CC000904240F2198102396244121AA4B2B2FB76
:100CD000FEF00EFB102244EA024400FB05F5A5429B
:100CE0000AD91CEB040400F1FF3280F00781A54211
:100CF00040F204816444023840EA0140641B002150
:100D00001EB1DC400023C6E90043BDE8F0878B42FA
:100D100008D9002E00F0ED800021C6E90005084644
:100D2000BDE8F087B3FA83F1002949D1AB4202D381
:100D3000824200F2F880841A65EB03020120174614
:100D4000002EE2D0C6E90047DFE702B9FFDEB2FAC3
:100D500082F3002B40F090808A1A4FEA1C471FFA5A
:100D60008CFE0121B2FBF7F507FB1520220C42EAAD
:100D700000420EFB05F0904208D91CEB020205F17F
:100D8000FF3802D2904200F2CB804546121AA4B23C
:100D9000B2FBF7F007FB102244EA02440EFB00FE10
:100DA000A64508D91CEB040400F1FF3202D2A64587
:100DB00000F2BB801046A4EB0E0440EA05409FE71A
:100DC000C1F120078B4022FA07FC4CEA030C05FA1C
:100DD00001F420FA07F3FD404FEA1C492343B5FB19
:100DE000F9F81FFA8CFE09FB18551C0C44EA05445F
:100DF00008FB0EF5A54202FA01F200FA01F00BD948
:100E00001CEB040408F1FF3A80F08880A54240F210
:100E10008580A8F102086444641B9DB2B4FBF9F319
:100E200009FB134445EA044403FB0EFEA64508D91A
:100E30001CEB040403F1FF356CD2A6456AD9023BD2
:100E4000644443EA0843A3FB0295A4EB0E04AC42BE
:100E5000C846AE4656D353D056B1B0EB080264EB49
:100E60000E0404FA07F7CA40CC401743C6E90074E1
:100E700018460021BDE8F087C3F1200102FA03FC07
:100E800020FA01F225FA01F19D402A434FEA1C475E
:100E90001FFA8CFEB1FBF7F007FB1015110C41EAAD
:100EA000054100FB0EF58D4204FA03F408D91CEB52
:100EB000010100F1FF382FD28D422DD90238614453
:100EC000491B92B2B1FBF7F507FB151142EA01424B
:100ED00005FB0EF1914208D91CEB020205F1FF3827
:100EE00016D2914214D9023D6244521A45EA004199
:100EF00038E73146304608E73946E6E61046FBE675
:100F00004845A9D2B9EB020865EB0C0E013BA3E7FB
:100F10004546EAE72B4694E74046D1E7D0467BE7D3
:100F2000023D624432E708460AE76444023842E779
:100F3000704700BF38B50E4B1A784FF47A73B3FB85
:100F4000F2F30C4A05461068B0FBF3F000F0E0FA4B
:100F5000044658B90F2D09D8024629464FF0FF30F4
:100F600000F096FA044B20461D6038BD0120FCE7D6
:100F7000000000200C0000200400002008B50B4BEE
:100F80001A6842F400721A601A6842F480621A60A9
:100F90001A6842F480721A60032000F067FA002099
:100FA000FFF7C8FF02F0C0FA002008BD003C024075
:100FB000034A044B11681B780B441360704700BF51
:100FC0009C00002000000020014B1868704700BF03
:100FD0009C00002038B50446002800F09B80056C7A
:100FE00025B902F0BDFA656484F83C50236CDB0639
:100FF00000F18E80236C23F4885323F0020343F026
:1010000002032364444B5A6822F440325A605A68FF
:1010100061680A435A60236821695A6822F4807221
:101020005A605A6842EA01225A605A68A16822F05E
:1010300040725A605A680A435A609A68E16822F41A
:1010400000629A609A680A439A603449A26A8A42A6
:1010500052D0996821F07061996099680A439A604A
:101060009A68E16A22F040529A609A680A439A604C
:101070009A6822F002029A609A68217E42EA41024E
:101080009A6094F82020002A3ED05A68616A42F49F
:1010900000625A605A6822F460425A605A68013904
:1010A00042EA41325A60DA6AE16922F47002DA6295
:1010B000DA6A013942EA0152DA629A6822F400726D
:1010C0009A609A6894F8301042EA41229A609A68CD
:1010D000616922F480629A609A68002042EA812263
:1010E0009A606064236C23F0030343F001032364DC
:1010F000002384F83C3038BD9A6822F070629A6010
:101100009A6822F04052B2E75A6822F40062C9E7B6
:101110000120EDE70120EEE7002301400100000F70
:1011200082B00023019390F83C30012B66D001235C
:1011300080F83C3003689A68D20705D59A68D107D1
:1011400014D4002002B070479A682D4942F0010281
:101150009A602C4A1268B2FBF1F202EB4202019251
:10116000019A002AEAD0019A013AF8E7026C22F4C7
:10117000E06222F0010242F4807202645A68520571
:1011800041BF026C22F4405242F480520264026C6D
:1011900012F480521CBF426C22F00602426400220C
:1011A00080F83C206FF022021A605A6842F0806298
:1011B00042F020025A60144A516811F01F0F13497F
:1011C00019D18B4207D001F580718B420CD1526846
:1011D00012F01F0FB5D1986810F04050B1D19A6845
:1011E00042F080429A60ADE709498B42A9D152682A
:1011F00012F0100FEEE78B42A3D1ECE70220A1E73B
:1012000040420F000C00002000230140002001405C
:10121000002201400368D86C70477047704738B5AA
:10122000036819685A688D0704462BD5900629D59E
:10123000226CD1065EBF226C42F4007222649A686E
:1012400012F0405F17D1227EAAB9DA6A12F4700F49
:1012500002D09A6852050ED45A6822F020025A60D1
:10126000236C23F480732364236CDB045EBF236C44
:1012700043F001032364204601F0A4FE23686FF0CD
:1012800012021A60236819685A684D0732D5100691
:1012900030D5226CD1065EBF226C42F4005222642B
:1012A0009A6812F4401F1ED19A6B12F4401F02D0AC
:1012B0009A68520517D45A68550514D49A6812F0E2
:1012C000405F10D1227E72B95A6822F080025A60C3
:1012D000236C23F480532364236CD8055EBF236CF6
:1012E00043F001032364204600F0BEF823686FF04A
:1012F0000C021A60236819685A68C9070FD5550689
:101300000DD51B68D8070AD5236C43F480332364BA
:101310002046FFF782FF23686FF001021A602368FE
:1013200019685A6889060DD552010BD5626C6FF0A9
:10133000200542F00202626420461D60FFF76EFF46
:1013400023681D6038BD0000F7B50023019390F8B5
:101350003C30012B64D0012380F83C300D680368D9
:101360008E68092DACB231D904EB4402DF681E3A15
:101370004FF0070C0CFA02FC27EA0C07DF60DF686D
:1013800006FA02F23A43DA604968062901EB810263
:101390002BD8596B053A1F26964021EA060159635E
:1013A000596B04FA02F20A435A632B4A934207D15B
:1013B000122D37D1D2F8043343F48003C2F804333A
:1013C000002380F83C30184603B0F0BD1A6905EBE5
:1013D000450C072707FA0CF722EA07021A611A6977
:1013E00006FA0CF616431E61CEE70C294FF01F01DA
:1013F0000BD81E6B233A914026EA01011963196B41
:1014000004FA02F20A431A63CFE7DE6A413A9140D6
:1014100026EA0101D962D96A94400C43DC62C4E730
:101420000220D1E7A5F11003012BC9D80B4A53685C
:10143000102D43F400035360C2D1094B094A1B68C5
:10144000B3FBF2F30A2253430193019B002BB7D065
:10145000019B013BF8E700BF002001400023014051
:101460000C00002040420F00704700000749CA6886
:1014700022F4E0620302120403F4E063120C13434B
:1014800043F0BF6343F40033CB60704700ED00E0EE
:10149000164B30B5DC68C4F30224C4F10703251DE4
:1014A000042B28BF0423062D4FF0FF358CBF033CCF
:1014B000002405FA03F321EA0303A54022EA05020A
:1014C000A340002843EA0203ACBF00F16040084A91
:1014D0004FEA0313B8BF00F00F00DBB2AABF00F55C
:1014E0006140135480F8003330BD00BF00ED00E0D0
:1014F00014ED00E0002807DB4109044A00F01F005A
:101500000123834042F82130704700BF00E100E032
:101510000138B0F1807F0BD24FF0E023054A5861CB
:10152000F02182F823100020072298611A61704789
:101530000120704700ED00E02DE9F04F6D4ADFF823
:10154000BC81DFF8BC9185B000230C6801279F4067
:1015500007EA040537EA040440F0B7804C6824F039
:10156000100ABAF1020F16D14FEAD30E00EB8E0E1D
:1015700003F0070BDEF820604FEA8B0B4FF00F0CE7
:101580000CFA0BFC26EA0C0C0E6906FA0BF646EA7E
:101590000C06CEF82060D0F800B04FEA430E4FF0B2
:1015A000030C0CFA0EFC6FEA0C062BEA0C0B04F091
:1015B000030C0CFA0EFC0AF1FF3A4CEA0B0CBAF1E0
:1015C000010F0196C0F800C013D8D0F808C006EA91
:1015D0000C0CCE6806FA0EFA4AEA0C0AC0F808A00B
:1015E000D0F804C02CEA070C27099F4047EA0C07F3
:1015F0004760C768019E37408E6806FA0EF63E4384
:10160000C660E60061D54FF0000BCDF80CB0D8F8FD
:101610004470394E47F48047C8F84470D8F8447095
:1016200007F480470397039F23F0030707F18047E0
:1016300007F59C3703F0030ED7F808A04FEA8E0E8B
:101640004FF00F0C0CFA0EFCB0422AEA0C0C43D0FF
:1016500006F58066B04241D006F58066B0423FD0C4
:1016600006F58066B0423DD006F58066B0423BD0BC
:1016700048453BD006F50066B04239D006F5806695
:10168000B0420CBF0726082606FA0EF646EA0C06FC
:10169000BE601668EF4314F4803F0CBF3E402E43FB
:1016A0001660566814F4003F0CBF3E402E4356604F
:1016B000966814F4801F0CBF3E402E439660D66897
:1016C000A40254BF3E402E43D6600133102B7FF45A
:1016D0003CAF05B0BDE8F08F5E46D5E70126D3E705
:1016E0000226D1E70326CFE70426CDE70526CBE780
:1016F0000626C9E7003C01400000024000380240D5
:10170000001402400AB1816170470904FBE70168D7
:101710004B6913F480634FF0000210D06FF48063C4
:101720004B612023026380F83D3080F83E20036C3B
:1017300080F83C2043F004030364012070471846FE
:1017400070472DE9F84606460F4691461D464FEA7A
:10175000114A3368BAF1010F0CBF5C699C6927EA32
:101760000404A4B2B4FA84F46409A14501D00020B1
:1017700017E06A1CEED0FFF727FC089BC01AA842AE
:1017800001D8002DE5D100232022336386F83D20C7
:1017900086F83E30326C86F83C3042F020023264EB
:1017A0000120BDE8F8862DE9F04104460F461646B3
:1017B00098462568686927EA000080B2B8B16B696D
:1017C0005A0516D52B6843F400732B606FF48063C1
:1017D0006B6120220023236384F83D2084F83E308F
:1017E000226C42F00402226484F83C300120BDE8FF
:1017F000F081731CDED0FFF7E7FBA0EB0800B042DE
:1018000001D8002ED5D100232022236384F83D2067
:1018100084F83E30226C42F02002E4E770B50446C2
:101820000D46164621684B6913F0400301D0002095
:1018300010E04A69D2060ED56FF010024A612022EC
:10184000236384F83D2084F83E30226C226484F8BF
:101850003C30012070BDFFF7B7FB801BA84201D8C8
:10186000002DDFD100232022236384F83D2084F85B
:101870003E30226C42F02002E8E770B504460D4687
:10188000164623685B695B0701D5002070BD2046C2
:10189000FFF73DFFA8B96A1CF3D0FFF795FB801B4B
:1018A000A84201D8002DECD100232022236384F824
:1018B0003D2084F83E30226C84F83C3042F0200217
:1018C00022640120E2E770B504460D4616462368FF
:1018D0005B691B0601D5002070BD2046FFF717FF8E
:1018E000A8B96A1CF3D0FFF76FFB801BA84201D890
:1018F000002DECD100232022236384F83D2084F8BE
:101900003E30226C84F83C3042F0200222640120F8
:10191000E2E7000070B5044608B9012070BD90F8F8
:101920003D3003F0FF021BB980F83C2001F052FE6D
:101930002268242384F83D30136823F001031360E8
:1019400000F090FF3F4B65689D4294BF3E4B3F4B7C
:1019500098428CBF00230123002BDED12268394E30
:1019600051683B4BB0FBF3F321F03F011943B54203
:10197000516088BF4FF49676116A88BF734321F097
:101980003F0184BF4FF47A76B3FBF6F301330B4388
:101990001362D169431E2B4821F44F41854221F047
:1019A000FF0132D86D0040F6FC70B3FBF5F3013354
:1019B000034242D0C3F30B031943D161D4E907308A
:1019C0001168034321F0C0010B4313609168D4E90F
:1019D000030321F40341034321F0FF010B43936010
:1019E000D4E90530D168034321F0FF010B43D360F4
:1019F000136843F00103136000202023206484F85F
:101A00003D30206384F83E0088E7A06850B905EBBC
:101A10004505B3FBF5F30133C3F30B037BB143F48B
:101A20000043C9E719206843B3FBF0F30133C3F364
:101A30000B0323B143F44043BEE70423BCE7012377
:101A4000BAE700BFA08601007F841E00FF083D00AA
:101A500040420F002DE9F043044685B098460C9FA4
:101A60000D469146FFF7B0FA94F83D30202B06461C
:101A700004D00225284605B0BDE8F08300905A49FD
:101A8000192301222046FFF75CFE0028F1D194F8CB
:101A90003C30012BEDD02168012384F83C300B68E9
:101AA000DB075EBF0B6843F001030B600B6823F498
:101AB00000630B60212384F83D30102384F83E300E
:101AC00000232364A4F82A80638D2385474BE362B7
:101AD000E36AC4F82490082B04D0012B02D013F53C
:101AE000803F04D10B6843F480730B6002E0236BEA
:101AF000122BF7D000963B4600224FF001112046F2
:101B0000FFF71FFE08B10125B4E723692268B3F58A
:101B1000804F21D105F0FE051561354933463A461F
:101B20002046FFF740FE05460028ECD123680390CD
:101B30005A6903929B690393039B238DF3B9216830
:101B40000A6842F400720A60202284F83D2084F87A
:101B50003C3084F83E308DE7EB1103F0060343F090
:101B6000F0031361234933463A462046FFF71BFE34
:101B70000028C8D12368EDB21D61CEE73246394650
:101B80002046FFF7A0FE40B1236C042B01BF226862
:101B9000136843F400731360B5E7636A20681A465C
:101BA00012F8011B01616262628D013A92B2628594
:101BB000228DD0F814C0511E89B21CF0040F21856B
:101BC0000AD049B15978016102336362638D013BE8
:101BD0009BB2023A63852285324639462046FFF79A
:101BE0004CFE0028A9D0CFE7020010000000FFFF44
:101BF00002000100080001002DE9F043044689B00D
:101C00009846109F0E469146FFF7DEF994F83D3056
:101C1000202B054604D00226304609B0BDE8F083EB
:101C200000909749192301222046FFF78AFD0028DA
:101C3000F1D194F83C30012BEDD02168012384F8D8
:101C40003C300B68D8075EBF0B6843F001030B60A4
:101C50000B6823F400630B60222384F83D301023CB
:101C600084F83E3000232364A4F82A80638D238502
:101C7000844BE362E36A0A68C4F8249042F4806209
:101C8000082B0A6004D0012B02D013F5803F04D149
:101C90000B6843F480730B6002E0236B112BF7D0C9
:101CA00000953B4600224FF001112046FFF749FD09
:101CB00008B10126B0E722692368B2F5804F27D129
:101CC00046F00106F6B21E616F492B463A462046A1
:101CD000FFF769FD06460028EBD1238D2168002B14
:101CE0004AD103904B6903938B690393039B0B6861
:101CF00043F400730B60DFF89881238D002B63D1D0
:101D0000202284F83D2084F83C3084F83E3083E77C
:101D10004FEAE61808F0060848F0F0021A615B493D
:101D20002B463A462046FFF73EFD0028C1D12368E6
:101D30005549F6B21E613A462B462046FFF733FD61
:101D400002460028B5D1236807905969079199691F
:101D500007910799196841F4807119602046009530
:101D60003B464FF00111FFF7ECFC0028A1D122689F
:101D700048F0F1031361A7E7012B0AD10B6823F4A4
:101D800080630B6004904B6904938B690493049BFC
:101D9000ADE7022B0B680DD123F480630B600B6859
:101DA00043F400630B6005904B6905938B690593C1
:101DB000059BA0E743F480630B6006904B69069394
:101DC0008B690693069B96E7032B63D8012B16D1EC
:101DD0002A4639462046FFF721FD00287FF469AFE7
:101DE00023681A69636A1A70636A01336362238D18
:101DF000013B2385638D013B9BB263857DE7022B0D
:101E000000953B464FF00002414620461AD1FFF7AD
:101E100098FC00287FF44DAF23681A6842F40072E2
:101E20001A601A69636A1A70626A531C6362238DAE
:101E3000013B2385638D013B9BB2638523681B694E
:101E40005370D1E7FFF77DFC024600287FF431AFE5
:101E50002368196821F4806119601969636A19702F
:101E6000636A009501336362238D013B2385638D93
:101E7000013B9BB2638541463B462046C7E700BF16
:101E8000020010000000FFFF020001000800010036
:101E9000040001002A4639462046FFF7BFFC00280F
:101EA0007FF407AF23681A69636A1A70626A531C69
:101EB0006362238D013B2385638D013B9BB2638568
:101EC0002368596949077FF518AFB8E7F8B50446A4
:101ED000002800F08C8090F8413003F0FF022BB90D
:101EE000454B80F84020436301F0ACFB226802219F
:101EF00084F84110D36923F47B6323F00F03D3618B
:101F0000636911628B42E26873D0A368002A0CBF38
:101F1000102520250120202B98BF6D0000F04AFDE0
:101F200023696269B3F5007F59D1E3680A21002B68
:101F300053D0AD00B0FBF5F34B43B3FBF2F30A22F1
:101F40000533B3FBF2F303F001025B08991EFD2990
:101F500049D81202134322692068DFF8ACC0E66852
:101F6000A56913430362D4E90121C36942EA010769
:101F700003EA0C033B4333432B4343F40063C36145
:101F8000236A012B23D11D4B63631D4F1D4B9842C8
:101F900018BF4FF04027B2F5007FFB6903EA0C033E
:101FA000FB614FF002033B621CBFB2FA82F35B0994
:101FB000F86914BF1B024FF480733143194380B298
:101FC000294340EA01039BB243F40063FB61002014
:101FD0000123606484F84130F8BDED00AAE70A21CE
:101FE000B0FBF5F3A8E7636C43F0100363640120D2
:101FF000F2E70022AEE700BF872000088521000835
:10200000003400400038004040F0FFFF10B50029C8
:1020100033D0002A31D090F84030012B0AD0012370
:1020200080F8403090F84130012B4FF0000303D08E
:1020300080F8403002201FE0032480F841404364D0
:1020400003684162DC69282104F00704E140C90704
:1020500044BF520092B2028542855A6842F0A00203
:102060005A60DA6952055EBFDA6942F48062DA6169
:10207000002380F84030184610BD0120FCE7436B78
:102080001847704770471FB503689A68019290F827
:102090004120042A044636D1019AD10717D55A683F
:1020A000520614D5C26AD96822F8021BC262428E57
:1020B000013A92B24286428E92B242B95A6822F0F6
:1020C00060025A60012380F84130FFF7DAFF019B7C
:1020D000590618D523685A68920614D55A6822F012
:1020E00060025A6000220292DA6802929B680293B0
:1020F000029B012384F84130636C43F00203636464
:102100002046FFF7BFFF94F84130032B36D1019BE7
:102110009B0719D522685368180615D5636A33F8EA
:10212000021BD1606362638D013B9BB26385638D4B
:102130009BB24BB9536823F0A0035360012384F88A
:102140004130204600F038FF019B190716D523685F
:102150005A68920612D55A6822F0A0025A600022EC
:1021600003929B680393039B012384F84130636CC3
:1021700043F0040363642046FFF784FF04B010BDFE
:102180007047000010B502688E49936886B0044617
:1021900000938D4B8A4218BF4FF0402399680191FC
:1021A0005168029159680391416831F4007140F01F
:1021B0009380009B99071AD5029B1B0617D5436A8B
:1021C000991C1B884162D360438D013B9BB24385C0
:1021D000438D9BB25BB9536823F0A0035360438ED9
:1021E0009BB223B9012380F84130FFF7C9FF019B5F
:1021F000D80722D5039B59061FD52168714A724B17
:10220000914218BF4FF04023E26AD968901CE06207
:102210001180628E013A92B26286628E92B262B987
:102220005A6822F060025A60638D9BB22BB9012379
:1022300084F841302046FFF7A3FF019B5A0622D5C0
:10224000039B9B061FD523685E495F4A8B4218BFDC
:102250004FF040222046516821F0600151605A68D9
:1022600022F0A0025A6000220492DA6804929B686D
:102270000493049B012384F84130636C43F0020310
:102280006364FFF7FFFE009B180740F19880029BF4
:10229000990640F1948023684A495A6822F0A002C6
:1022A0005A60494A8B4218BF4FF04022516821F0D2
:1022B00060015160002205929B680593059B0123F4
:1022C00084F84130636C204643F00403636406B035
:1022D000BDE81040FFF7D6BE019A92071AD5039ABF
:1022E000110617D5426A911C12884162DA60428D4C
:1022F000013A92B24285428D92B25AB95A6822F09E
:10230000A0025A60438E9BB223B9012380F841306A
:10231000FFF736FF009BDA071CD5029B5B0619D539
:10232000E36A2268981CD168E0621980638E013BE1
:102330009BB26386638E9BB263B9536823F06003DC
:102340005360638D9BB22BB9012384F84130204642
:10235000FFF716FF009B58061BD5029B990618D560
:1023600022681849536823F060035360164B8A4271
:1023700018BF4FF0402320465A6822F0A0025A604E
:10238000012384F84130636C43F002036364FFF778
:1023900079FE019B1A0712D5039B9B060FD5226875
:1023A0000849094B8A4218BF4FF04023596821F071
:1023B000A0015960536823F0600353607FE706B0C3
:1023C00010BD00BF00380040003400402DE9F3414B
:1023D000044618B9012002B0BDE8F0810368DD07AA
:1023E00010D42368980758D423681A0700F19A80FC
:1023F00023685B0700F1BA80A269002A40F02281BD
:102400000020E8E78C4B9A6802F00C02042A07D0FF
:102410009A6802F00C02082A0AD15B68590207D5B3
:10242000854B1B689A03DCD56368002BD9D1D1E7B3
:102430006368814DB3F5803F11D12B6843F480333D
:102440002B60FEF7C1FD7C4E054633689B03C8D464
:10245000FEF7BAFD401B6428F7D90320BBE7B3F5AC
:10246000A02F04D12B6843F480232B60E5E72A6872
:1024700022F480322A602A6822F480222A60002B0B
:10248000DFD1FEF7A1FD06462B689F03A9D5FEF715
:102490009BFD801B6428F7D9DFE7674B9A6812F031
:1024A0000C0F07D09A6802F00C02082A11D15B6861
:1024B0005E020ED4604A13689D0702D5E368012BC3
:1024C00088D11368216923F0F80343EAC10313603C
:1024D0008AE7E268594BB2B101221A60FEF774FD37
:1024E000554D06462B68980707D52B68226923F0BF
:1024F000F80343EAC2032B6076E7FEF765FD801B15
:102500000228EFD9A9E71A60FEF75EFD4A4E05469C
:10251000336899077FF568AFFEF756FD401B022828
:10252000F6D99AE76269454B82B10122C3F8802E41
:10253000FEF74AFD404E0546736F9F073FF558AFC3
:10254000FEF742FD401B0228F6D986E7C3F8802E2D
:10255000FEF73AFD384E0546736F98077FF548AF92
:10256000FEF732FD401B0228F6D976E7324B1A6C93
:1025700012F0805228D101921A6C42F080521A64F3
:102580001B6C03F080530193019B01272C4D2B689A
:10259000D9051BD5A368284D012B27D12B6F43F0FC
:1025A00001032B67FEF710FD234E054641F28838E4
:1025B000336F9B0739D5002F3FF41EAF1E4A136CB3
:1025C00023F08053136417E70027DFE72B6843F4F9
:1025D00080732B60FEF7F8FC06462B68DA05D9D429
:1025E000FEF7F2FC801B0228F7D936E7052B04D151
:1025F0002B6F43F004032B67D0E72A6F22F0010210
:102600002A672A6F22F004022A67002BCAD1FEF73C
:10261000DBFC41F2883806462B6F9807CBD5FEF7D6
:10262000D3FC801B4045F7D917E7FEF7CDFC401BD4
:102630004045BDD911E700BF0038024000004742C5
:1026400000700040224DAB6803F00C03082B3FF4F0
:10265000C1AE204B022A4FF000021A662BD1FEF7C2
:10266000B3FC06462B6899011FD4D4E90732134303
:10267000626A43EA8213E26A43EA0263A26A520888
:10268000013A43EA02436B60124B114D01221A6674
:10269000FEF79AFC04462B689A013FF5B1AEFEF7AF
:1026A00093FC001B0228F6D9D7E6FEF78DFC801BB1
:1026B0000228D7D9D1E6FEF787FC04462B689B0198
:1026C0007FF59EAEFEF780FC001B0228F6D9C4E61B
:1026D0000038024000004742134908B58B6803F0F8
:1026E0000C03042B1CD0082B1CD14A684B6849688A
:1026F00013F4800314BF0D480D48C1F3881118BFAF
:10270000002302F03F02A1FB0001FEF795FA064B01
:102710005B68C3F3014301335B00B0FBF3F008BD1A
:102720000248FCE70248FAE70038024000127A004B
:102730000024F4002DE9F0410D46044610B90120B3
:10274000BDE8F081434B1A6802F00F028A4227D39A
:1027500021688F072CD4C8073FD43E4B1A6802F07B
:102760000F02AA4264D8226851076AD4130707D51A
:10277000394A2169936823F4604343EAC1039360B3
:10278000FFF7AAFF344B354A9B68C3F30313D35CAE
:10279000D840334B18600020FEF7CCFB0020CFE779
:1027A000CAB21A701B6803F00F038B42C7D1CFE780
:1027B000294B11F0040F1EBF9A6842F4E0529A6050
:1027C0000E0742BF9A6842F460429A609A68A06815
:1027D00022F0F00202439A60BDE762681E4B012AB4
:1027E0001CD11B6813F4003FA9D01B4EB36823F023
:1027F00003031343B360FEF7E7FB41F28838074653
:10280000B368626803F00C03B3EB820FA5D0FEF748
:10281000DBFBC01B4045F3D9032091E7911E012942
:102820001B6802D813F0007FDEE713F0020FDBE72E
:10283000EAB21A701B6803F00F03AB427FF47FAF5C
:1028400091E70549E0688B6823F4E05303438B600C
:102850008CE700BF003C024000380240FC590008F1
:102860000C000020044B054A9B68C3F38223D35C11
:10287000034A1068D8407047003802400C5A0008DC
:102880000C000020036813F0050FF7B5044605D1CE
:10289000236813F002032AD1002026E0424B434E66
:1028A00000229A66FEF790FB054633681F0116D496
:1028B000D4E901231B0743EA8213C6F884303A4B5C
:1028C0003A4E01229A66FEF77FFB054633681801EF
:1028D000DED4FEF779FB401B0228F7D904E0FEF7AF
:1028E00073FB401B0228E0D9032003B0F0BD002396
:1028F00001932E4B2E4D1A6C42F080521A641B6CC1
:1029000003F080530193019B2B6843F480732B6089
:10291000FEF75AFB06462B68D9051BD5234DE26806
:102920002B6F13F440731BD1E36803F44072B2F5CC
:10293000407F1E4A34D1916823F0704021F4F81191
:1029400020F4407001439160116FC3F30B030B43FC
:102950001367A1E7FEF738FB801B0228DBD9C3E72A
:1029600002F440729342DFD02B6F0F4A0121C2F86C
:10297000401E23F440730021C2F8401E2B672B6FCA
:10298000DA07D1D5FEF720FB41F2883706462B6FD8
:102990009B07C9D4FEF718FB801BB842F7D9A3E701
:1029A000916821F4F811CEE7000047420038024058
:1029B0000070004001281BD10E4B9A68120217D4F8
:1029C0005A6812F4800F5A6814BF0B4B0B4B02F07D
:1029D0003F02B3FBF2F3074AD2F88400D2F8842016
:1029E000C0F388105843C2F30273B0FBF3F0704792
:1029F000002070470038024000127A000024F400E2
:102A0000022380F83D3003689A6802F00702062A24
:102A10001EBF1A6842F001021A60012380F83D309F
:102A200000207047304A0368904212D0B0F1804FC6
:102A30000FD0A2F57C4290420BD002F5806290420A
:102A400007D002F58062904203D002F578429042AE
:102A500019D14A6823F070031343234A904229D0C6
:102A6000B0F1804F26D0A2F57C42904222D002F5F0
:102A7000806290421ED002F5806290421AD002F528
:102A80007842904216D0194A904213D002F58062E3
:102A900090420FD002F5806290420BD0A2F598329E
:102AA000904207D002F58062904203D002F5806226
:102AB000904203D1CA6823F4407313434A6923F058
:102AC0008003134303608B68C3620B688362064B09
:102AD000984203D003F58063984201D10B690363E8
:102AE00001234361704700BF0000014000400140E6
:102AF00010B50446A0B190F83D3003F0FF021BB9B9
:102B000080F83C2000F0F2FD0223206884F83D307C
:102B1000211DFFF787FF012384F83D30002010BD01
:102B20000120FCE710B58468114324F47F4441EA96
:102B300003232343836010BD38B590F83C30012B4C
:102B400004464FF0020327D0012280F83D3080F880
:102B50003C200068836823F47F4323F0770383607D
:102B60000B68602B4BD032D8402B60D016D8202B6E
:102B700003D009D833F0100208D1826822F0700225
:102B8000134343F0070338E0302BF6D0012384F8D9
:102B90003D30002384F83C30184638BD502BF5D129
:102BA0004A68CD68016A036A23F0010303628369FE
:102BB00021F00A0123F0F00343EA05130A4383617D
:102BC0000262836823F0700343F0570315E0702B13
:102BD0000BD0B3F5005FD9D1CB68D1E90121FFF764
:102BE000A1FF836843F4804307E0CB68D1E901216A
:102BF000FFF798FF836843F077038360C6E7036AB3
:102C00004D68C96823F0100303628269036A22F4E5
:102C1000704223F0A00343EA051342EA01328261C5
:102C20000362836823F0700343F06703E5E74A68B3
:102C3000CD68016A036A23F001030362836921F00E
:102C40000A0123F0F00343EA05130A438361026299
:102C5000836823F0700343F04703CEE730B590F864
:102C60003C30012B4FF0020314D0046880F83D3053
:102C70006268A3680D68496822F0700223F080033F
:102C80000B432A436260A360012380F83D30002398
:102C900080F83C30184630BD07B58DF804008DF83B
:102CA000051001A8114600F0C7F903B05DF804FB58
:102CB00013B500F0DDF9022210460121FFF7ECFF09
:102CC0000222AF210420FFF7E7FF02228021052026
:102CD000FFF7E2FF9DF80510062001228DF80400A1
:102CE000FFF7DAFF0DF1050000F0B4F99DF80510CB
:102CF0009DF8040001F0200141F0070102228DF847
:102D00000510FFF7C9FF9DF805100E2001228DF870
:102D10000400FFF7C1FF0DF1050000F09BF99DF8DD
:102D200005109DF8040001F0370141F03001022246
:102D30008DF80510FFF7B0FF022200210F20FFF7EA
:102D4000ABFF022200211A20FFF7A6FF022200217A
:102D50001B20FFF7A1FF022299210020FFF79CFF13
:102D60003224022280214720FFF796FF9DF80510AC
:102D70008DF8044001222046FFF78EFF0DF105007B
:102D800000F068F99DF805109DF8040041F08001FD
:102D900002228DF80510FFF77FFF9DF805108DF8D2
:102DA000044001222046FFF777FF0DF1050000F0F7
:102DB00051F99DF805109DF8040001F07F010222F1
:102DC0008DF80510FFF768FF002108460222FFF783
:102DD00063FF02229E211046FFF75EFF02B010BD86
:102DE00000F022B92DE9F74F012300225B008B424E
:102DF000934602F10102F9D101EBD1734FEA630A64
:102E00004FF480674FF0000E97FBF1F300935346A9
:102E10005A001746009A394ED20000EBC30C0192BB
:102E20004FEA031900252FE092ED006AD2ED016A06
:102E300094ED007AD4ED017AD6ED004A37EE065AC9
:102E400077EEA65A37EE467A77EEE67A96ED016A85
:102E500066EE676AB844E7EE246AC2ED006AD6ED12
:102E6000006A67EEA67AE7EE067AC2ED017A84ED93
:102E7000005AC4ED015A4A444C448845D4DB019AB7
:102E800001350CF1080C16449D4204DA00EBC50430
:102E90006246A846F1E7009A03EBD3735200F3456C
:102EA00000924FEA63030EF1010208D104460022AA
:102EB00001250139A9421EDC03B0BDE8F08F96461A
:102EC000A6E7D21A03EBD3735B109A42F9DA1A44DD
:102ED00095420DDA00EBC203D4F808C01F68C3F8AE
:102EE00000C05E68D4F80CC0C3F804C0A760E660F8
:102EF00001350834DEE75346E7E700BFB034002071
:102F000070B5102498B0224600210EA800F0ABFD49
:102F10001422002107A800F0A6FD2246002103A8E4
:102F200000F0A1FD0024224B01941A6C42F0805263
:102F30001A641B6C03F080530193019B1D4B029498
:102F40001A6842F480421A601B6803F480430293BB
:102F5000029B01264FF480330225CDE90C634FF428
:102F600080030822CDE912534FF4A873CDE914234E
:102F70000CA8072317931695FFF728FA0F23CDE91E
:102F800007354FF4A0514FF48053CDE90A1307A839
:102F900005210994FFF7CEFB03234FF48170CDE99F
:102FA000040303A80396FFF76DFC18B070BD00BFC3
:102FB0000038024000700040014B01221A70704737
:102FC0000A000020014B01221A707047A000002067
:102FD000044B1B7823B1012B034818BF0020704716
:102FE00002487047080000200A020020A2000020CA
:102FF00008B54FF4B4720021054800F034FDBDE877
:10300000084004484FF4B472002100F02CBD00BF0A
:10301000A20000200A02002008B50248FEF7FAF8D4
:1030200080B208BD800300200A4601460148FEF731
:10303000EDBF00BF1C04002007B50B46642102460B
:10304000009103489421FEF705FD03B05DF804FBF1
:10305000C803002007B5642302460093942101238E
:103060000248FEF7C9FD03B05DF804FBC803002069
:10307000024801221021FEF745BB00BF000C0240B0
:1030800070B5ADF5805D6C46021D254600F6FC70FE
:1030900000231646D6E900610432891B824245F8B6
:1030A000041B0B44F5D1002BB8BF03F2FF339B1276
:1030B00000220C4811461E3354F8045B9D4202DD89
:1030C00069B1013901E00029FBD100250132B2F5D7
:1030D000806F40F8045BEFD10DF5805D70BD154643
:1030E0000221F3E7A80400202DE9F043ADF5805D4F
:1030F00081B00546FFF790FF304E314C3168314FBB
:1031000007EE900A04EBC103F8EE677A0131002262
:10311000B1F5806F3880C3ED007A5A60316032D1EA
:103120002046FFF75FFEE94600233360C8461E468F
:10313000D4ED007AFDEEE77A013617EE900AD4ED71
:10314000017AFDEEE77A80F0020017EE903A83F004
:1031500002031844FDF7DEF941EC100B01F0A2FA6E
:1031600051EC100BFDF7F0FCB6F5806F49F8040B3D
:1031700004F10804DCD14046FFF782FFD8F88C1137
:10318000114800F01BFC114A3988136825F8131008
:1031900005EB43050233B32B6980136009D90C4B4F
:1031A0000C491C7808780C700B49187000230B70C0
:1031B00013600DF5805D01B0BDE8F083AC14002014
:1031C000B0140020A8140020F8590008A40400201E
:1031D0007C030020080000200900002010B5094CE5
:1031E000237823B9084B09481860FFF77DFF23783F
:1031F000012B06D1044B06481860BDE81040FFF7CC
:1032000073BF10BD7C03002078030020A2000020C3
:103210000A020020000000002DE9F04F2DED048B84
:103220008DB0FDF7ABFEFFF76BFE1422002107A85F
:1032300000F019FC00249A4B00941A6B99489A4D9F
:10324000DFF8B4929FED999A42F080021A631A6BEC
:1032500002F080020092009A01941A6B42F001027F
:103260001A631A6B02F001020192019A02941A6B1E
:1032700042F008021A631A6B02F008020292029AE4
:1032800003941A6B42F004021A631A6B02F00402F0
:103290000392039A04941A6B42F002021A631B6BA6
:1032A00003F00203049322460421049BFEF72AFA4A
:1032B00022467F484FF21001FEF724FA0126794892
:1032C000099407A9CDE90764FEF736F90423754888
:1032D00007A9CDE90736CDE90944FEF72DF94FF2EC
:1032E000100307A97248CDE90736CDE90944FEF776
:1032F00023F97048704A714B0462C0E900234FF40F
:103300008043C0E90434C0E90244C0E90644FEF742
:1033100001FB6B486B494FF40073C0E90013036174
:103320004BF68033C0E90534C0E90244C0E90744E4
:10333000FEF7CCFD1022214607A800F094FB62485E
:10334000EE614FF48033C5E900034FF080574FF032
:10335000C0632846C5E90A376E61AC602C612C76E3
:1033600085F82040EC6085F83040FDF733FE07A972
:103370002846CDE907660994544E554FFDF7E4FF02
:103380001022214607A800F06EFB4FF0804CAF23BF
:10339000C6E900C330460923C6E90334B460B4610A
:1033A000CDE90544FFF7A4FB4FF4805307A930464D
:1033B0000793FFF7C1FB05A920233046CDE905346B
:1033C000FFF74CFC434B3B60434B444A1A60FFF70A
:1033D0006FFCFFF70DFE3046FFF712FB2846FDF7A6
:1033E0009FFE0FF2B40BDBE900AB3D4E3D4D4FF0BD
:1033F000000807EE904AF8EEE77A013417EE900ADB
:10340000FDF79AF852465B46FDF7EEF842464B460A
:10341000FDF7EAF841EC100B41EC180B01F070F9E4
:1034200051EC100BFDF7B8FBB0EE480AF0EE680A5D
:10343000306001F0B9F951EC100BFDF7ADFBB4F5BC
:10344000806F706085ED009A85ED019A06F108069F
:1034500005F10805CDD1244BDFF8A080234C0022D4
:103460001A60234D98F80000FFF7B2FD2B78386002
:103470003BB126782EB90223B4212370FFF7B0FCAC
:103480002E701C4B1A78002AECD000221A70FFF71D
:10349000A5FEE6E7AFF30080182D4454FB21194048
:1034A00000380240000002408003002000000000BD
:1034B000000C0240C803002000540040A086010018
:1034C0001C040020003C0040002001406404002057
:1034D000740300200A02002078030020A2000020CC
:1034E000B0340020B0140020AC14002009000020EB
:1034F0000A000020A00000200000503F080000202B
:103500004FF06043D3F8802ED10703D5D3F8002EB7
:10351000D20702D40020704700BF1A68002AFBD0EF
:10352000C0B21870F6E7000082B00C4B0021009189
:103530005A6C42F480425A645A6C02F480420092FF
:10354000009A01911A6C42F080521A641B6C03F0CD
:1035500080530193019B02B0704700BF00380240C6
:1035600010B5044688B01422002103A800F07BFAAD
:103570002268164B9A4226D103F58C33002401941D
:103580005A6C134842F480725A645A6C02F4807286
:103590000192019A02941A6B42F001021A631B6BAA
:1035A00003F0010302930222029B03A90323CDE946
:1035B0000323FDF7C1FF122022462146FDF768FFD5
:1035C0001220FDF797FF08B010BD00BF002001409A
:1035D0000000024030B5044689B01422002103A83F
:1035E00000F041FA2268144B9A4222D1134C14483D
:1035F00000250195236B43F002032363236B03F043
:1036000002030193019B4FF410721223CDE90323AF
:103610000123059303A904230793FDF78DFF02956A
:10362000236C43F400132364236C03F4001302930C
:10363000029B09B030BD00BF00540040003802407A
:1036400000040240F0B5044689B01422002103A80A
:1036500000F009FA2268224B9A423FD103F5FE336B
:10366000002400941A6C1F4842F400421A641A6C39
:1036700002F400420092009A01941A6B42F0010297
:103680001A631A6B02F001020192019A02941A6BFA
:1036900042F004021A631B6B03F004030293029BC3
:1036A000022710230126062503A9CDE90337CDE91A
:1036B0000665FDF741FF4FF4A4530B48079503A996
:1036C000CDE90337CDE90546FDF736FF3320224625
:1036D0002146FDF7DDFE3320FDF70CFF09B0F0BDFC
:1036E000003C004000000240000802400368B3F1C3
:1036F000804F82B00BD100230193064B1A6C42F02D
:1037000001021A641B6C03F001030193019B02B0D8
:10371000704700BF0038024070477047FDF748BC53
:103720000148FDF77CBD00BF800300200148FEF783
:10373000A6BC00BF1C04002070B50D4614460E4602
:10374000731B9C4201DC204670BDAFF3008006F87D
:10375000010BF5E770B50D4614460E46731B9C42EF
:1037600001DC204670BD16F8010BFFF7C9FEF5E736
:103770000A4A116808B5034609B909491160106879
:10378000694603448B4206D900F0BCF90C23036060
:103790004FF0FF3008BD1360FCE700BFB0540020BD
:1037A000005600204FF0FF3070474FF400534B603D
:1037B0000020704701207047002070470F49D1F862
:1037C000883043F47003C1F888300D4B1A6800202C
:1037D00042F001021A6098601A6822F0847222F4A2
:1037E00080321A60074A5A601A6822F480221A60EE
:1037F000D8604FF000638B60704700BF00ED00E0C1
:103800000038024010300024DFF834D0002103E0FB
:103810000C4B5B58435004310B480C4B42189A42F6
:10382000F6D30B4A02E0002342F8043B094B9A42CC
:10383000F9D3FFF7C3FF00F06BF9FFF7EDFC70471A
:1038400000000220305C0008000000208000002002
:103850008000002000560020FEE70000002310B585
:103860000446C0E90033C0E90433836081814366C4
:10387000C2818361194608225C3000F0F4F8054BE0
:103880006362054BA362054BE362054B246223632D
:1038900010BD00BFE1390008033A00083B3A0008B8
:1038A0005F3A0008024A0349034800F069B800BFC4
:1038B00010000020014400081C00002041680C4B4F
:1038C000994210B5044601D000F09AFDA168094B59
:1038D000994202D0204600F093FDE168064B9942E0
:1038E00004D02046BDE8104000F08ABD10BD00BFE6
:1038F000B45400201C5500208455002010B50B4BFB
:103900000B4C0C4A1A60204600220421FFF7A6FF48
:1039100004F1680001220921FFF7A0FF04F1D000A3
:103920000222BDE810401221FFF798BFEC5500209D
:10393000B4540020A5380008014800F00DB900BFBC
:10394000F5550020014800F008B900BFF5550020EA
:1039500010B50446FFF7F0FF236A1BB1BDE8104025
:10396000FFF7F0BF044B2362044B1B68002BF5D11B
:10397000FFF7C4FFF2E700BFBD380008EC55002098
:103980002DE9F8430746884614460026D4E90195F8
:10399000B9F1010905D52468002CF7D13046BDE8FE
:1039A000F883AB89012B07D9B5F90E30013303D069
:1039B00029463846C04706436835E9E70FB407B5DE
:1039C000064904AB086853F8042B8168019300F0A2
:1039D000E7F903B05DF804EB04B07047680000201D
:1039E00010B50C46B1F90E1000F068F80028ABBF16
:1039F000636DA3891B1823F48053ACBF6365A38157
:103A000010BD2DE9F0411F468B89DB0505460C46AC
:103A1000164605D5B1F90E100223002200F03CF83D
:103A2000A389B4F90E1023F48053A38132463B4698
:103A30002846BDE8F04100F053B810B50C46B1F986
:103A40000E1000F029F8431CA38915BF606523F40C
:103A5000805343F48053A38118BFA38110BDB1F9F3
:103A60000E1000F009B802440346934200D170479B
:103A700003F8011BF9E7000038B5064D00230446A2
:103A800008462B60FFF78EFE431C02D12B6803B162
:103A9000236038BDF055002038B5074D0446084670
:103AA000114600222A601A46FFF786FE431C02D107
:103AB0002B6803B1236038BDF055002038B5074DA1
:103AC00004460846114600222A601A46FFF734FED3
:103AD000431C02D12B6803B1236038BDF055002090
:103AE00038B5074D04460846114600222A601A469A
:103AF000FFF730FE431C02D12B6803B1236038BDB1
:103B0000F0550020014B1868704700BF6800002086
:103B100070B50D4D0D4C641BA4100026A64209D1B2
:103B20000B4D0C4C01F05CFF641BA4100026A64258
:103B300005D170BD55F8043B98470136EEE755F8BE
:103B4000043B98470136F2E7285C0008285C00082F
:103B5000285C00082C5C00087047704737B50029C6
:103B600044D051F8043C0190002BA1F10404B8BFEB
:103B7000E41800F0DFF81E4A0198136833B9636057
:103B8000146003B0BDE8304000F0DAB8A34208D9B1
:103B9000256861198B4201BF19685B68491921606A
:103BA000EDE71A465B680BB1A342FAD911685518C4
:103BB000A5420BD1246821445418A3421160E0D1DE
:103BC0001C685B6853600C441460DAE702D90C236C
:103BD0000360D6E7256861198B4204BF19685B68EA
:103BE000636004BF491921605460CAE703B030BD67
:103BF000F855002070B50E4E0C463168054611B9D7
:103C000000F0BCFC30602146284600F0B7FC431CA5
:103C10000AD0C41C24F00304A04207D0211A28466D
:103C200000F0ACFC013001D14FF0FF34204670BDF4
:103C3000FC5500202DE9F843CD1C25F0030508357F
:103C40000C2D38BF0C25002D074601DBA94205D9F4
:103C50000C233B6000263046BDE8F883DFF8D080B7
:103C600000F068F8D8F800301C465CBB294638469E
:103C7000FFF7C0FF431C044655D1D8F80040264644
:103C8000002E45D1002C48D023683146384604EB3D
:103C9000030900F073FC81453FD121686D1A294664
:103CA0003846FFF7A7FF013037D023682B44236045
:103CB000D8F80030002B38D05A68A2422BD100220D
:103CC0005A600FE02268521B1FD40B2A17D96119C2
:103CD000A342256018BF5960636808BFC8F8001088
:103CE00062514B60384604F10B0600F029F826F0CB
:103CF0000706231DF21AAED09B1BA350ABE7A342CD
:103D00006268DDD1C8F80020ECE723466468ACE7C0
:103D100034467668B4E71346CCE70C233B6038465C
:103D200000F00EF897E72560DCE75B60FFDE00BF80
:103D3000F85500200148FFF70FBF00BFF4550020E1
:103D40000148FFF70ABF00BFF45500209368013B0C
:103D5000002B10B4936008DA9469A34201DB0A29AE
:103D600003D15DF8044B00F073BB1368581C10605E
:103D7000197008465DF8044B7047F8B506460F46C3
:103D80001446D518AC4201D1002007E014F8011BFD
:103D90003A463046FFF7DAFF431CF3D1F8BD000086
:103DA0002DE9F04F0D469DB014469846064618B1D1
:103DB000036A0BB9FFF7CCFD6B6ED90705D4AB894D
:103DC0009A0502D4A86DFFF7C7FEAB891B0701D582
:103DD0002B699BB92946304600F078FB70B16B6EB9
:103DE000DC0704D54FF0FF301DB0BDE8F08FAB8984
:103DF0009805F7D4A86DFFF7B0FEF3E70023099309
:103E000020238DF82930CDF80C803023DFF8B081E5
:103E10008DF82A304FF0010923469A4613F8012BFA
:103E20000AB1252AF9D1BAEB040B0BD05B46224626
:103E300029463046FFF7A1FF013000F0A980099A1A
:103E40005A4409929AF80030002B00F0A180002318
:103E50004FF0FF32CDE905230AF1010A04930793DD
:103E60008DF853301A935446052214F8011B544818
:103E7000FCF7AEF9049AD8B9D10644BF20238DF8D7
:103E80005330130744BF2B238DF853309AF800307A
:103E90002A2B15D0079A544600204FF00A0C2146D1
:103EA00011F8013B303B092B4DD9B0B1079214E01A
:103EB000A0EB080309FA03F313430493A246D2E7E5
:103EC000039B191D1B680391002BBBBF5B4242F093
:103ED000020207930793B8BF049223782E2B0CD1CC
:103EE00063782A2B34D1039B1A1D1B680392002B85
:103EF000B8BF4FF0FF3302340593DFF8D4A0217828
:103F000003225046FCF764F938B1049BA0EB0A0089
:103F10004022824013430134049314F8011B2948C2
:103F20008DF828100622FCF753F900283FD0264BC5
:103F30001BBB039B073323F0070308330393099B41
:103F40003B44099368E70CFB02320C460120A6E7CC
:103F500000230134059319464FF00A0C204610F84F
:103F6000012B303A092A03D9002BC6D00591C4E7AA
:103F70000CFB012104460123F0E703AB00932A4622
:103F8000124B04A93046AFF300800746781CD6D107
:103F90006B6ED90705D4AB899A0502D4A86DFFF7DB
:103FA000DCFDAB895B063FF51DAF09981CE703AB51
:103FB00000932A46054B04A9304600F079F8E4E75F
:103FC000145A00081E5A0008000000007B3D00083B
:103FD0001A5A00082DE9F047164699468A680B6977
:103FE000DDF820809342B8BF1346336091F8432038
:103FF00007460C460AB1013333602368990642BF75
:10400000336802333360256815F0060506D104F1E4
:10401000190AE36832689B1AAB4226DC94F8432005
:10402000131E226818BF012392062BD404F1430209
:1040300049463846C04701301ED02368226903F044
:104040000603042B02BFE5683368ED1AA3680CBFB2
:1040500025EAE57500259342C4BF9B1AED1800269A
:104060001A34B5421AD1002008E0012352464946CD
:104070003846C047013003D14FF0FF30BDE8F0872C
:104080000135C6E7E1185A1C302081F8430022446C
:1040900094F8451082F843100233C7E70123224603
:1040A00049463846C0470130E6D00136D9E700001E
:1040B0002DE9FF470F7E0C9D782F914680460C46D8
:1040C0009A4601F1430207D8622F0AD8002F00F068
:1040D000D480582F00F0C08004F1420584F842706B
:1040E0003AE0A7F16303152BF6D801A151F823F0AC
:1040F000494100085D410008D9400008D940000846
:10410000D9400008D94000085D410008D9400008A6
:10411000D9400008D9400008D94000086142000891
:10412000894100081B420008D9400008D940000816
:1041300083420008D940000889410008D94000089E
:10414000D9400008234200082B681A1D1B682A600A
:1041500004F1420584F8423001239FE020682B6877
:10416000070603F10401296001D51E6803E0460635
:10417000FBD5B3F90060002E03DA2D23764284F8D4
:1041800043305A480A2312E02B682068191D296021
:10419000050601D51E6802E04106FBD51E8853487E
:1041A0006F2F0CBF08230A23002184F84310656891
:1041B000A560002DA2BF216821F0040121600EB985
:1041C000002D4BD01546B6FBF3F103FB1167C75D1D
:1041D00005F8017D3746BB420E46F4D9082B0BD1BA
:1041E0002368DE0708D5236961689942DEBF302362
:1041F00005F8013C05F1FF35521B2261CDF800A006
:104200004B4603AA21464046FFF7E4FE01304AD15F
:104210004FF0FF3004B0BDE8F087236843F020037F
:1042200023603348782784F84570236829681F067F
:1042300051F8046B02D45F0648BFB6B2DF0748BF2F
:1042400043F02003296048BF23601EB9236823F090
:10425000200323601023A7E72448E4E71546BDE7C1
:104260002B6826686169181D286035061B6801D512
:10427000196002E07006FBD5198000232361154602
:10428000BCE72B681A1D2A601D6862680021284659
:10429000FBF79EFF08B1401B606063682361002349
:1042A00084F84330AAE723692A4649464046D04766
:1042B0000130ADD023689B0713D4E068039B98427C
:1042C000B8BF1846A6E70123324649464046D047C4
:1042D00001309DD00135E36803995B1AAB42F2DCF3
:1042E000EBE7002504F11906F5E700BF255A0008A1
:1042F000365A00088A892DE9F041054610070C4618
:1043000058D44B68002B05DC0B6C002B02DC002022
:10431000BDE8F081E66A002EF9D0002312F4805245
:104320002F68216A2B6032D0606DA3895A0705D5AA
:104330006368C01A636B0BB1236CC01A002302467A
:10434000E66A216A2846B047431CA38906D129683A
:104350001D292BD8294A0A41D60727D4002262609A
:10436000D9042269226004D5421C01D12B6803B90B
:104370006065616B2F600029C9D004F14403994244
:1043800002D02846FFF7EAFB00206063C0E7012364
:104390002846B047411CC8D12B68002BC5D01D2B27
:1043A00001D0162B01D12F60B1E7A38943F0400360
:1043B000A381ADE70F69002FA9D093070E6808BF4E
:1043C0004B690F6018BF0023A6EB07088B60B8F19C
:1043D000000F9CDD216AA66A43463A462846B0474C
:1043E000002806DCA38943F04003A3814FF0FF308F
:1043F0008EE70744A8EB0008E9E700BFFEFFBFDF38
:1044000038B50B6905460C4613B90025284638BD5A
:1044100018B1036A0BB9FFF79BFAB4F90C30002B03
:10442000F3D0626ED00704D4990502D4A06DFFF7D3
:1044300093FB28462146FFF75DFF636EDA070546CA
:10444000E4D4A3899B05E1D4A06DFFF786FBDDE7EB
:10445000F8B50E461446054618B1036A0BB9FFF7C6
:1044600077FAA369A360A3891A0725D523691BB32B
:1044700023682269981A6369F6B28342374604DCDE
:1044800021462846FFF7BCFFE0B9A368013BA360C3
:1044900023685A1C22601E706269431C9A4204D031
:1044A000A389DB0706D50A2E04D121462846FFF74B
:1044B000A7FF38B93846F8BD2146284600F006F86F
:1044C0000028D5D04FF0FF37F4E7000038B52A4B6D
:1044D000054618680C4618B1036A0BB9FFF738FA9D
:1044E000A389B4F90C20180722D4D90607D40923CC
:1044F0002B6042F04003A3814FF0FF3034E05807B7
:1045000012D5616B41B104F14403994202D02846AF
:10451000FFF724FB00236363A38923F02403A38113
:104520000023636023692360A38943F00803A38108
:1045300023694BB9A38903F42073B3F5007F03D03B
:104540002146284600F050F8A089B4F90C2010F05C
:1045500001030AD00023A36063695B42A36123695E
:1045600043B910F08000C4D138BD810758BF6369DA
:10457000A360F4E70020F7E76800002038B5064D97
:104580000023044608462B60FFF7F2F8431C02D1D3
:104590002B6803B1236038BDF055002070B50C4680
:1045A000B1F90E10002996B015461E460DDAA38902
:1045B00013F0800F4FF000010CBF4FF480634023D5
:1045C000002031602B6016B070BD6A4600F048F8DC
:1045D0000028ECDB019901F47041A1F50053594228
:1045E00059414FF48063EBE78B8973B59D0706460D
:1045F0000C4607D504F1470323602361012363615F
:1046000002B070BD01AB6A46FFF7C8FF00990546CE
:104610003046FFF70FFB48B9B4F90C309A05EFD4D8
:1046200023F0030343F00203A381E3E7A38920609F
:1046300043F08003A381009B6361019B20615BB118
:10464000B4F90E10304600F01DF828B1A38923F00C
:10465000030343F00103A381A3891D43A581CFE791
:1046600038B5074D00230446084611462B60FFF776
:104670009CF8431C02D12B6803B1236038BD00BFF6
:10468000F055002038B5064D0023044608462B603F
:10469000FFF790F8431C02D12B6803B1236038BDAB
:1046A000F055002038B52DED028B55EC104B00F085
:1046B000D3F822462B4620462946B0EE408AF0EE3B
:1046C000608AFCF72BFA90B9002200232046294685
:1046D000FCF7FCF958B1FFF715FA2123036000221B
:1046E000002310461946FCF7A9F841EC180BB0EE70
:1046F000480AF0EE680ABDEC028B38BD00000000ED
:104700001FB553EC102B264823F00041814206DCF4
:104710009FED211B05B05DF804EB00F079B921484D
:10472000814209DD10EE100A1946FBF7A5FD41ECA8
:10473000100B05B05DF804FB684600F0F1FA00F0DC
:10474000030001280BD0022816D0E0B99DED021B12
:104750009DED000B00F05CF951EC100BE7E79DEDCF
:10476000021B9DED000B00F01BFA53EC102B10EE1A
:10477000100A03F10041DAE79DED021B9DED000BED
:1047800000F046F9F1E79DED021B9DED000B0120C5
:1047900000F006FAE0E700BF0000000000000000A3
:1047A000FB21E93FFFFFEF7F1FB553EC102B28489B
:1047B00023F00041814207DC9FED231B002005B060
:1047C0005DF804EB00F0ECB92248814209DD10EEFF
:1047D000100A1946FBF750FD41EC100B05B05DF8CF
:1047E00004FB684600F09CFA00F0030001280CD09E
:1047F000022811D0F0B99DED021B9DED000B0120A8
:1048000000F0CEF951EC100BE6E79DED021B9DED9B
:10481000000B00F0FDF8F5E79DED021B9DED000B90
:10482000012000F0BDF953EC102B10EE100A03F13B
:104830000041D1E79DED021B9DED000B00F0E8F873
:10484000F1E700BFAFF300800000000000000000AF
:10485000FB21E93FFFFFEF7F2DE9F84F55EC104BAF
:10486000674EAE4310EE100A10EE102A29462B4672
:104870000DD1FBF7B9FE02460B4620462946FBF751
:10488000FDFC04460D4645EC104BBDE8F88F002DAD
:104890000BDC25F000462643F5D035B1FBF7ECFCE8
:1048A00002460B46FBF7CAFFEBE7091500F08D80C7
:1048B000C3F31303A1F2FF3643F48013C9075CBFAF
:1048C0005B0003EBD2734FEA430358BF520000254D
:1048D00003EBD273761052004FF0160EAC464FF435
:1048E00000110CEB01009842DEBF1B1A00EB010C1B
:1048F0006D185B00BEF1010E03EBD2734FEA51015C
:104900004FEA4202EDD1744620274FF00041634543
:1049100001EB0E0002DC13D1904211D8002800EB0D
:10492000010E57DABEF1000F54DB0CF10108A3EBC6
:104930000C03904288BF03F1FF33121A0C44C446A3
:104940005B00013F03EBD2734FEA51014FEA420291
:10495000DDD113431BD0DFF8ACA0DFF8ACB0DAE94F
:104960000001DBE90023FBF787FCDAE90089024656
:104970000B4640464946FCF7B3F840B1B4F1FF3F5F
:10498000DAE90001DBE9002326D101353C466A1053
:104990006308E90702F17F5202F5001248BF43F0B5
:1049A000004302EB06551C466DE7D30A1538520545
:1049B000002BFAD0DC020AD5C1F1200422FA04F45B
:1049C0004D1E8A402343411B72E70846F0E75B0017
:1049D0000131EFE7E046AAE7FBF750FCDAE900898E
:1049E00002460B4640464946FCF770F820B1A01C31
:1049F00008BF01350234CAE7013424F00104C6E7D8
:104A00000000F07F7000002078000020000000000F
:104A10002DE9F74F57EC106B27F00048B8F1795F9C
:104A20008DED001B07DA10EE100A3946FCF78CF802
:104A3000002800F0888032463B4630463946FBF776
:104A4000D3FD514B002204460D46FBF7CDFD40A39C
:104A5000D3E9002382468B4620462946FBF7C4FD56
:104A60003DA3D3E90023FBF709FC22462B46FBF7C5
:104A7000BBFD3BA3D3E90023FBF7FEFB22462B46FD
:104A8000FBF7B2FD38A3D3E90023FBF7F7FB22467F
:104A90002B46FBF7A9FD36A3D3E90023FBF7ECFB7C
:104AA00022462B46FBF7A0FD33A3D3E90023FBF7F7
:104AB000E5FB22462B46FBF797FD22462B46FBF7EC
:104AC00093FDDDE9002304460D4630463946FBF7E9
:104AD0008BFD0B46024629462046FBF7CDFB2B4BB0
:104AE000984506460F4610DC02460B46504659468E
:104AF000FBF7C2FB0B46264902460020FBF7BCFB36
:104B000041EC100B03B0BDE8F08F224B20499845D3
:104B1000CCBF214DA8F50015002422462B460020CD
:104B2000FBF7AAFB2246804689462B46504659464B
:104B3000FBF7A2FB32463B46FBF79EFB02460B46C9
:104B400040464946DAE79FED0E0BDBE7AFF3008006
:104B5000D43888BEE9FAA8BDC4B1B4BD9EEE213EEA
:104B6000AD529C804F7E923E9015CB19A001FA3E2B
:104B70007751C1166CC1563F4C5555555555A53FFB
:104B8000000000000000F03F0000E03F3233D33F60
:104B90000000F03F0000E93F0000D23F00000000AD
:104BA0002DE9F04F2DED048BB0EE418AF0EE618AD5
:104BB00055EC104B83B025F00043B3F1795F0190C1
:104BC00006DA10EE100A2946FBF7BEFF002851D086
:104BD00022462B4620462946FBF706FD82468B4699
:104BE00002460B4620462946FBF7FEFC41A3D3E9CB
:104BF00000238046894650465946FBF7F5FC3FA303
:104C0000D3E90023FBF738FB52465B46FBF7ECFC8D
:104C10003CA3D3E90023FBF731FB52465B46FBF78D
:104C2000E3FC3AA3D3E90023FBF726FB52465B469D
:104C3000FBF7DAFC37A3D3E90023FBF71FFB019B4B
:104C400006460F46EBB902460B4650465946FBF75F
:104C5000CBFC25A3D3E90023FBF70EFB42464B46D2
:104C6000FBF7C2FC02460B4620462946FBF706FB33
:104C700004460D4645EC104B03B0BDEC048BBDE87B
:104C8000F08F1B4B51EC180B0022FBF7ADFC3246AA
:104C900041EC190B3B4640464946FBF7A5FC024652
:104CA0000B4651EC190BFBF7E7FA52465B46FBF754
:104CB0009BFC53EC182BFBF7DFFA0BA3D3E9002383
:104CC00006460F4640464946FBF78EFC02460B4619
:104CD00030463946FBF7D2FA02460B4620462946B3
:104CE000FBF7CAFAC4E700BF495555555555C53FAE
:104CF0000000E03F7CD5CF5A3AD9E53DEB9C2B8AAA
:104D0000E6E55A3E7DFEB157E31DC73ED561C119A8
:104D1000A0012A3FA6F810111111813F00000000E8
:104D20002DE9F04F2DED028B55EC104BCA4B8BB09B
:104D300025F0004898458246029508DC00220023B1
:104D400080ED000BC0E902234FF0000B28E0C34BBD
:104D5000984578DC029BC24E002B10EE100AB0A3DF
:104D6000D3E90023294639DDFBF786FAB04504462E
:104D70000D461BD0ACA3D3E90023FBF77DFA024616
:104D80000B46CAE9002320462946FBF775FAA6A37D
:104D9000D3E90023FBF770FACAE902014FF0010BD7
:104DA00058460BB0BDEC028BBDE8F08FA0A3D3E951
:104DB0000023FBF761FAA0A3D3E9002304460D46C4
:104DC000FBF75AFA02460B46CAE900232046294659
:104DD000FBF752FA98A3D3E90023DBE7FBF74EFA7F
:104DE000B04504460D4616D08FA3D3E90023FBF748
:104DF00045FA02460B46CAE9002320462946FBF73E
:104E00003BFA89A3D3E90023FBF738FA4FF0FF3BC5
:104E1000CAE90201C4E786A3D3E90023FBF72EFA0F
:104E200085A3D3E9002304460D46FBF727FA024683
:104E30000B46CAE9002320462946FBF71DFA7EA34C
:104E4000D3E90023E0E7874B984500F3D88000F0D2
:104E50006DF955EC104B10EE100A79A3D3E900233D
:104E60002946FBF7C1FB804B0022FBF707FAFBF753
:104E70006BFE8346FBF74EFB02460B4643EC182BBA
:104E800067A3D3E90023FBF7AFFB02460B4620469E
:104E90002946FBF7F1F964A3D3E9002306460F4640
:104EA00051EC180BFBF7A0FBBBF11F0F04460D469E
:104EB0000DDC6E4B0BF1FF3253F82230434506D028
:104EC00022462B4630463946FBF7D6F90EE02B46F4
:104ED000224630463946FBF7CFF94FEA2853039371
:104EE000C1F30A53C3EB1853102B02DCCAE90001CB
:104EF00039E04FA3D3E9002351EC180BFBF774FB07
:104F000004460D4602460B4630463946FBF7B4F9D7
:104F100002460B468046894630463946FBF7ACF9D7
:104F200022462B46FBF7A8F943A3D3E90023044606
:104F30000D4651EC180BFBF757FB22462B46FBF7AF
:104F40009BF902460B4604460D4640464946FBF790
:104F500093F9039AC1F30A53D31A312B24DCCAE91B
:104F6000000146464F46DAE90089304642464B4644
:104F70003946FBF781F92B462246FBF77DF9029B68
:104F8000002BCAE90201BFF60BAF09F10043CAF8D2
:104F9000043001F10043CAF80080CAF80800CAF8DA
:104FA0000C30CBF1000BFBE627A3D3E9002351EC37
:104FB000180BFBF719FB04460D4602460B4640460C
:104FC0004946FBF759F902460B4606460F4640464E
:104FD0004946FBF751F922462B46FBF74DF91CA336
:104FE000D3E9002304460D4651EC180BFBF7FCFAFD
:104FF00022462B46FBF740F904460D4660E71C4B62
:10500000984537DD10EE102A2B4620462946FBF73F
:1050100033F9CAE90201CAE9000195E6AFF300805D
:1050200000004054FB21F93F3163621A61B4D03D66
:105030000000601A61B4D03D7370032E8A19A33B3F
:1050400083C8C96D305FE43F0000002E8A19A33B7E
:10505000C14920259A837B39FB21E93F7BD9024056
:10506000FB21F93FFB2139410000E03F485A00088D
:10507000FFFFEF7F4FEA2856A6F21646A8EB06512F
:1050800020460D46FBF760FDFBF744FA02460B464F
:1050900020462946CDE90423FBF7EEF8214B0022F8
:1050A000FBF7A2FA0D460446FBF74EFDFBF732FA7A
:1050B00002460B4620462946CDE90623FBF7DCF8DD
:1050C000184B0022FBF790FACDE908010DF12808F2
:1050D00003270024002578E9020122462B46B94621
:1050E000013FFBF7E9FC0028F5D10F4B01930223A8
:1050F000009332464B46514604A800F021F8029B2B
:10510000002B8346BFF64CAEDAE9002101F10043E3
:10511000CAE90023DAE9022101F10043CAE90223C6
:105120003FE700BF00007041C85A000851EC100B67
:1051300010EE102A21F0004343EC102B70470000C2
:105140002DE9F04F2DED028BADF5197D12F1140F05
:1051500006930491C24BA499099053F8213000930F
:10516000069B03F1FF33A8BFD41E0593B2BF0024F2
:10517000182394FBF3F46FF0170304FB033303EBE2
:10518000020A009B059A9FEDB28B03EB0208A59BD8
:10519000A71A20AE03EB87090025454513DD069BC2
:1051A00020AA02EBC3050DF5E07B4FF00008009B41
:1051B000984531DC9FEDA67BDDF824908DED027BD8
:1051C0002F4600261BE0EF4207D459F82500FBF7D5
:1051D000A1F9E6E802010135DFE751EC180BF8E729
:1051E000D7E90023F9E80201FBF7FEF902460B4676
:1051F000DDE90201FBF742F8CDE902010136059B2A
:105200009E42A7F10807EBDD9DED027B08F1010846
:10521000ABEC027B0835CAE7009B0CAA02EB8303C8
:105220000B93A59B03EB8403009C0A93E300089374
:1052300098AB03EBC40353E928670DF1300870AB5A
:1052400003EBC405C346A146B9F1000FA5F108055B
:1052500077DC47EC106B504600F0C2FA57EC106B4D
:1052600000224FF07F5310EE100A3946FBF7BCF9CD
:1052700041EC100B00F034FB7A4B51EC100B002288
:10528000FBF7B2F902460B4630463946FAF7F4FF0F
:105290000F460646FBF758FC0290FBF73BF9024627
:1052A0000B4630463946FAF7E7FFBAF1000F0646DB
:1052B0000F466DDD611E0CAB029D53F82130CAF123
:1052C000180043FA00F2154482409B1A0CAA02957A
:1052D00042F82130CAF1170243FA02FBBBF1000F7A
:1052E00065DD029B00220133029315466FF07F417A
:1052F000944200F39F80BAF1000F07DDBAF1010F6D
:1053000000F0C180BAF1020F00F0C780BBF1020FBC
:105310004DD132463B4654490020FAF7ADFF0646D0
:105320000F46002D43D050469FED4B0B00F058FA2E
:105330003046394653EC102BFAF79EFF06460F46CF
:1053400035E04A4B002230463946FBF74DF9FBF772
:10535000FBFBFBF7DFF802460B4643EC182B444BF4
:105360000022FBF741F902460B4630463946FAF770
:1053700083FFFBF7E9FBD5E900234BF8040B51EC65
:10538000180BFAF77BFF09F1FF3906460F465BE77A
:1053900006D1631E0CAA52F823304FEAE35B9DE767
:1053A000344B0022FBF7A6FB002840D183460022A5
:1053B000002330463946FBF77FFB002800F0C18010
:1053C000651E2B46002200998B426DDA002A00F000
:1053D0008A800CABAAF1180A53F82530002B00F094
:1053E000AE8050469FED1C0B00F0FAF96B1CDA0002
:1053F000059257EC106B70AADFF8709002EBC30AAD
:105400002C464FF00008002C80F2D4802C46002C53
:10541000C0F20281184B1E4670AB03EBC4082B1B75
:105420004FF000094FF0000A00270693E6E04FF026
:10543000020B56E7D8F8003005BB23B1C3F18073E7
:10544000C8F800300123013208F104081D464FE777
:105450000000000000000000000000000000F03F1D
:10546000105C0008000020400000F03F0000703E8B
:10547000000070410000E03FD05B0008CB1AC8F884
:1054800000302B46DFE7621E0CAB53F82230C3F32B
:1054900016030CA941F8223038E7621E0CAB53F812
:1054A0002230C3F31503F4E70CA951F82310013B94
:1054B0000A4388E7013352F8041D0029FAD0089AFC
:1054C00002F518726A44983A0892069A20A9A2181E
:1054D000E31804F1010801EBC2050293029B434566
:1054E00004DA1C46A2E60B9A0123E4E70A9B53F870
:1054F0002800FBF70FF8E5E80201099BAB461C46C4
:105500004FF0000900260027059B994506DD089B02
:10551000E3E8026708F101080893DFE77BE902236B
:10552000F4E80201FBF760F802460B4630463946C4
:10553000FAF7A4FE09F1010906460F46E4E7013D2A
:1055400047E747EC106BCAF1000000F049F957EC4F
:10555000106BA04B10EE100A00223946FBF7CAFA76
:10556000F8B19D4B002230463946FBF73DF8FBF77A
:10557000EBFA8046FAF7CEFF964B0022FBF734F8A1
:105580000B46024639463046FAF776FEFBF7DCFA60
:10559000651C0CAB0AF1180A43F8240043F8258077
:1055A0001FE730463946FBF7CFFA0CAB254643F8E8
:1055B000240016E70CAB53F82400FAF7ABFF324691
:1055C0003B46FBF711F842466AE902014B4630467A
:1055D0003946FBF709F8013C06460F4613E7F8E8A1
:1055E0000223F6E80201FAF7FFFF02460B4648469F
:1055F0005146FAF743FE013781468A46009B9F4297
:1056000002DC069B9F42EADD069A48AB03EBC2062A
:10561000C6E9009A013CFAE6A49B022B0BDC002BA6
:1056200039DC5DD0029B03F007000DF5197DBDEC60
:10563000028BBDE8F08FA49B032BF3D1059B009553
:1056400003F518730DEB0304A4F5A474A246009BA4
:10565000002BAAF1080A69DCAA46BAF1010FA4F1ED
:10566000080400F38380059C48AB1C440020002103
:10567000012D00F39A80DDE94878DDE94A56BBF157
:10568000000F40F09880049BC3E90078C3E90256FC
:10569000C3E90401C6E7059E48AB1E442C46002022
:1056A0000021002C33DABBF1000F36D0024601F1A5
:1056B0000043049CC4E9002302460B46DDE948018F
:1056C000FAF7DAFD4AAE0124A54229DABBF1000F50
:1056D00002D001F100431946049BC3E90201A1E78E
:1056E000059C48AB1C4400200021002D09DABBF1C9
:1056F000000F02D001F100431946049BC3E90001E9
:1057000090E774E90223FAF7B9FD013DEDE776E988
:105710000223FAF7B3FD013CC3E702460B46C8E794
:10572000F6E80223FAF7AAFD0134CDE7DAE90089A9
:10573000DAE90267009B013B009332463B46404654
:105740004946FAF79BFDCDE9060102460B46404665
:105750004946FAF791FD32463B46FAF78FFD9DED3B
:10576000067BCAE902018AED007B70E7D4E9008973
:10577000D4E90267404632463B464946FAF77EFD89
:10578000CDE9000102460B4640464946FAF774FD52
:1057900032463B46FAF772FD9DED007BC4E90201FB
:1057A00084ED007B0AF1FF3A57E774E90223FAF728
:1057B00065FD013D5CE7049B049A1F6008F100440D
:1057C0005C609D6006F10043D36001F1004310610D
:1057D000536127E7000070410000703E00000000A8
:1057E00070B555EC104BC5F30A5106462B4699B9D6
:1057F00025F0004323433FD0354B294610EE100AD5
:105800000022FAF7F1FE334B9E4204460D4610DAB1
:1058100027A3D3E900231FE040F2FF7291420CD18D
:1058200010EE102A20462946FAF728FD04460D46B8
:1058300022E00B46C1F30A5136394CF250329642FF
:105840000DDD002D1CA1D1E9000102DA1CA1D1E976
:10585000000119A3D3E90023FAF7C6FEE6E77218A0
:1058600040F2FE718A42ECDC002A08DD23F0FF439F
:1058700023F4E00343EA025545EC104B70BD12F1EE
:10588000350F08DA002D0AA1D1E90001C0DA0EA116
:10589000D1E90001BCE723F0FF43363223F4E003F3
:1058A00043EA025120460C4B0022D5E7AFF30080BB
:1058B00059F3F8C21F6EA5019C7500883CE4377E41
:1058C0009C7500883CE437FE59F3F8C21F6EA58131
:1058D00000005043B03CFFFF0000903C000000007F
:1058E00051EC100BC1F30A532DE9F041A3F2FF363E
:1058F000132E10EE105A10EE108A0C4631DC002EDA
:1059000014DA33A3D3E90023FAF7B8FC002200230A
:10591000FBF7FAF838B1002C53DA24F000442543A1
:1059200052D02D4C00252146284624E02B4F3741EC
:1059300001EA070303431ED025A3D3E90023FAF7A6
:105940009DFC00220023FBF7DFF80028EBD0002CA1
:10595000BEBF4FF480133341E41824EA0704002546
:10596000E1E7332E0BDDB6F5806F04D110EE102A7F
:105970000B46FAF783FC41EC100BBDE8F081A3F273
:1059800013434FF0FF37DF403842F4D010A3D3E980
:105990000023FAF773FC00220023FBF7B5F8002878
:1059A000C1D0002C0ADA142E01D1013406E0C6F170
:1059B00034060123B3401D44A845F6D825EA07055F
:1059C000B1E700252C46AEE74FF00044ABE700BF3F
:1059D0009C7500883CE4377E0000F0BFFFFF0F009D
:1059E000F8B500BFF8BC08BC9E467047F8B500BFCC
:0859F000F8BC08BC9E4670479C
:1059F80025640A0000000000000000000102030402
:105A0800060708090000000001020304232D302BBB
:105A18002000686C4C0065666745464700303132A7
:105A280033343536373839414243444546003031FE
:105A3800323334353637383961626364656600005D
:105A4800FB21F93FFB2109407CD91240FB21194079
:105A58007A6A1F407CD92240BBFD2540FB212940A2
:105A68003A462C407A6A2F405C4731407CD9324014
:105A78009C6B3440BBFD3540DB8F3740FB21394000
:105A88001BB43A403A463C405AD83D407A6A3F40B7
:105A98004C7E40405C4741406C1042407CD94240BB
:105AA8008CA243409C6B4440AC344540BBFD454010
:105AB800CBC64640DB8F4740EB584840FB21494066
:105AC80083F9A200444E6E00FC291500D157270027
